{"contracts/GrantPayment.sol":{"GrantPayment":{"abi":[{"inputs":[{"internalType":"address","name":"_tokenAddress","type":"address"}],"stateMutability":"nonpayable","type":"constructor"},{"anonymous":false,"inputs":[{"indexed":false,"internalType":"address","name":"delegate","type":"address"},{"indexed":false,"internalType":"address","name":"grantee","type":"address"},{"indexed":false,"internalType":"uint96","name":"distributedAmount","type":"uint96"},{"indexed":false,"internalType":"uint96","name":"amount","type":"uint96"},{"indexed":false,"internalType":"uint96","name":"milestoneAmount","type":"uint96"},{"indexed":false,"internalType":"uint96","name":"reachedMilestoneAmount","type":"uint96"},{"indexed":false,"internalType":"string","name":"grantRefID","type":"string"},{"indexed":false,"internalType":"enum Enum.GrantStatus","name":"status","type":"uint8"},{"indexed":false,"internalType":"uint16","name":"nonce","type":"uint16"}],"name":"ExecuteGrantTransfer","type":"event"},{"anonymous":false,"inputs":[{"indexed":false,"internalType":"string","name":"grantRefID","type":"string"},{"indexed":false,"internalType":"enum Enum.GrantStatus","name":"status","type":"uint8"}],"name":"GrantCanceled","type":"event"},{"anonymous":false,"inputs":[{"indexed":false,"internalType":"string","name":"grantRefID","type":"string"},{"indexed":false,"internalType":"address","name":"delegate","type":"address"},{"indexed":false,"internalType":"uint96","name":"amount","type":"uint96"},{"indexed":false,"internalType":"uint96","name":"milestoneAmount","type":"uint96"}],"name":"GrantCreated","type":"event"},{"anonymous":false,"inputs":[{"indexed":false,"internalType":"string","name":"grantRefID","type":"string"},{"indexed":false,"internalType":"enum Enum.GrantStatus","name":"status","type":"uint8"}],"name":"GrantPayed","type":"event"},{"anonymous":false,"inputs":[{"indexed":false,"internalType":"string","name":"grantRefID","type":"string"},{"indexed":false,"internalType":"uint96","name":"distributedAmount","type":"uint96"},{"indexed":false,"internalType":"uint96","name":"reachedMilestoneAmount","type":"uint96"}],"name":"GrantUpdated","type":"event"},{"inputs":[],"name":"DOMAIN_SEPARATOR_TYPEHASH","outputs":[{"internalType":"bytes32","name":"","type":"bytes32"}],"stateMutability":"view","type":"function"},{"inputs":[],"name":"GRANT_TRANSFER_TYPEHASH","outputs":[{"internalType":"bytes32","name":"","type":"bytes32"}],"stateMutability":"view","type":"function"},{"inputs":[],"name":"NAME","outputs":[{"internalType":"string","name":"","type":"string"}],"stateMutability":"view","type":"function"},{"inputs":[],"name":"VERSION","outputs":[{"internalType":"string","name":"","type":"string"}],"stateMutability":"view","type":"function"},{"inputs":[{"internalType":"address[]","name":"_delegates","type":"address[]"}],"name":"addDelegates","outputs":[],"stateMutability":"nonpayable","type":"function"},{"inputs":[{"internalType":"address","name":"","type":"address"}],"name":"approvedDelegates","outputs":[{"internalType":"bool","name":"","type":"bool"}],"stateMutability":"view","type":"function"},{"inputs":[{"internalType":"string","name":"_grantRefID","type":"string"}],"name":"cancelGrant","outputs":[],"stateMutability":"nonpayable","type":"function"},{"inputs":[{"internalType":"string","name":"_grantRefID","type":"string"}],"name":"getGrant","outputs":[{"components":[{"internalType":"address","name":"delegate","type":"address"},{"internalType":"address","name":"grantee","type":"address"},{"internalType":"uint96","name":"amount","type":"uint96"},{"internalType":"uint96","name":"distributedAmount","type":"uint96"},{"internalType":"uint96","name":"milestoneAmount","type":"uint96"},{"internalType":"uint96","name":"reachedMilestoneAmount","type":"uint96"},{"internalType":"string","name":"grantRefID","type":"string"},{"internalType":"enum Enum.GrantStatus","name":"status","type":"uint8"},{"internalType":"uint16","name":"nonce","type":"uint16"}],"internalType":"struct GrantPayment.Grant","name":"","type":"tuple"}],"stateMutability":"view","type":"function"},{"inputs":[{"internalType":"string","name":"","type":"string"}],"name":"grants","outputs":[{"internalType":"address","name":"delegate","type":"address"},{"internalType":"address","name":"grantee","type":"address"},{"internalType":"uint96","name":"amount","type":"uint96"},{"internalType":"uint96","name":"distributedAmount","type":"uint96"},{"internalType":"uint96","name":"milestoneAmount","type":"uint96"},{"internalType":"uint96","name":"reachedMilestoneAmount","type":"uint96"},{"internalType":"string","name":"grantRefID","type":"string"},{"internalType":"enum Enum.GrantStatus","name":"status","type":"uint8"},{"internalType":"uint16","name":"nonce","type":"uint16"}],"stateMutability":"view","type":"function"},{"inputs":[],"name":"owner","outputs":[{"internalType":"address","name":"","type":"address"}],"stateMutability":"view","type":"function"},{"inputs":[{"internalType":"address","name":"_granteeAddress","type":"address"},{"internalType":"address","name":"_delegate","type":"address"},{"internalType":"uint96","name":"_amount","type":"uint96"},{"internalType":"uint96","name":"_milestoneAmount","type":"uint96"},{"internalType":"string","name":"_grantRefID","type":"string"}],"name":"setGrant","outputs":[],"stateMutability":"nonpayable","type":"function"},{"inputs":[],"name":"token","outputs":[{"internalType":"contract IERC20","name":"","type":"address"}],"stateMutability":"view","type":"function"},{"inputs":[{"internalType":"string","name":"_grantRefID","type":"string"},{"internalType":"uint96","name":"_currentMilestone","type":"uint96"},{"internalType":"address","name":"_delegate","type":"address"}],"name":"updateGrant","outputs":[],"stateMutability":"payable","type":"function"},{"inputs":[{"internalType":"string","name":"_grantRefID","type":"string"},{"internalType":"address","name":"_newDelegate","type":"address"}],"name":"updateGrantDelegate","outputs":[],"stateMutability":"nonpayable","type":"function"}],"devdoc":{"kind":"dev","methods":{},"version":1},"evm":{"bytecode":{"linkReferences":{},"object":"60806040523480156200001157600080fd5b5060405162002fda38038062002fda833981810160405281019062000037919062000139565b33600160006101000a81548173ffffffffffffffffffffffffffffffffffffffff021916908373ffffffffffffffffffffffffffffffffffffffff16021790555080600260006101000a81548173ffffffffffffffffffffffffffffffffffffffff021916908373ffffffffffffffffffffffffffffffffffffffff160217905550600260009054906101000a900473ffffffffffffffffffffffffffffffffffffffff166000806101000a81548173ffffffffffffffffffffffffffffffffffffffff021916908373ffffffffffffffffffffffffffffffffffffffff16021790555050620001b3565b600081519050620001338162000199565b92915050565b6000602082840312156200014c57600080fd5b60006200015c8482850162000122565b91505092915050565b6000620001728262000179565b9050919050565b600073ffffffffffffffffffffffffffffffffffffffff82169050919050565b620001a48162000165565b8114620001b057600080fd5b50565b612e1780620001c36000396000f3fe6080604052600436106100dd5760003560e01c80638da5cb5b1161007f578063e1ad037711610059578063e1ad0377146102b9578063eb700373146102e4578063fc0c546a1461030d578063ffa1ad7414610338576100dd565b80638da5cb5b1461023a57806390e1ebda14610265578063a3f4df7e1461028e576100dd565b806333aec12a116100bb57806333aec12a1461015257806346015978146101975780634b531c05146101d45780636c2b6ef914610211576100dd565b80630c1f5972146100e25780631db61b54146100fe5780631f62bd0114610129575b600080fd5b6100fc60048036038101906100f79190612333565b610363565b005b34801561010a57600080fd5b506101136108c5565b60405161012091906127f4565b60405180910390f35b34801561013557600080fd5b50610150600480360381019061014b91906122df565b6108e9565b005b34801561015e57600080fd5b506101796004803603810190610174919061229e565b610ae2565b60405161018e99989796959493929190612745565b60405180910390f35b3480156101a357600080fd5b506101be60048036038101906101b9919061217c565b610c89565b6040516101cb91906127d9565b60405180910390f35b3480156101e057600080fd5b506101fb60048036038101906101f6919061229e565b610ca9565b6040516102089190612948565b60405180910390f35b34801561021d57600080fd5b506102386004803603810190610233919061229e565b610fbf565b005b34801561024657600080fd5b5061024f611418565b60405161025c91906126f3565b60405180910390f35b34801561027157600080fd5b5061028c600480360381019061028791906121a5565b61143e565b005b34801561029a57600080fd5b506102a3611788565b6040516102b0919061282a565b60405180910390f35b3480156102c557600080fd5b506102ce6117c1565b6040516102db91906127f4565b60405180910390f35b3480156102f057600080fd5b5061030b60048036038101906103069190612234565b6117e5565b005b34801561031957600080fd5b50610322611930565b60405161032f919061280f565b60405180910390f35b34801561034457600080fd5b5061034d611954565b60405161035a919061282a565b60405180910390f35b600060038460405161037591906126dc565b9081526020016040518091039020604051806101200160405290816000820160009054906101000a900473ffffffffffffffffffffffffffffffffffffffff1673ffffffffffffffffffffffffffffffffffffffff1673ffffffffffffffffffffffffffffffffffffffff1681526020016001820160009054906101000a900473ffffffffffffffffffffffffffffffffffffffff1673ffffffffffffffffffffffffffffffffffffffff1673ffffffffffffffffffffffffffffffffffffffff1681526020016001820160149054906101000a90046bffffffffffffffffffffffff166bffffffffffffffffffffffff166bffffffffffffffffffffffff1681526020016002820160009054906101000a90046bffffffffffffffffffffffff166bffffffffffffffffffffffff166bffffffffffffffffffffffff16815260200160028201600c9054906101000a90046bffffffffffffffffffffffff166bffffffffffffffffffffffff166bffffffffffffffffffffffff1681526020016003820160009054906101000a90046bffffffffffffffffffffffff166bffffffffffffffffffffffff166bffffffffffffffffffffffff16815260200160048201805461054390612c11565b80601f016020809104026020016040519081016040528092919081815260200182805461056f90612c11565b80156105bc5780601f10610591576101008083540402835291602001916105bc565b820191906000526020600020905b81548152906001019060200180831161059f57829003601f168201915b505050505081526020016005820160009054906101000a900460ff166003811115610610577f4e487b7100000000000000000000000000000000000000000000000000000000600052602160045260246000fd5b6003811115610648577f4e487b7100000000000000000000000000000000000000000000000000000000600052602160045260246000fd5b81526020016005820160019054906101000a900461ffff1661ffff1661ffff16815250509050826bffffffffffffffffffffffff168160a001516bffffffffffffffffffffffff161461084f57828160a001906bffffffffffffffffffffffff1690816bffffffffffffffffffffffff16815250506106c68461198d565b826bffffffffffffffffffffffff1681608001516bffffffffffffffffffffffff1614156107a95760028160e00190600381111561072d577f4e487b7100000000000000000000000000000000000000000000000000000000600052602160045260246000fd5b90816003811115610767577f4e487b7100000000000000000000000000000000000000000000000000000000600052602160045260246000fd5b815250507f917b135d16171ace46753a2e622d103ad36702bc83e7e15d4613e23819b7195f848260e001516040516107a0929190612898565b60405180910390a15b826bffffffffffffffffffffffff1681608001516bffffffffffffffffffffffff161461084e5760018160e00190600381111561080f577f4e487b7100000000000000000000000000000000000000000000000000000000600052602160045260246000fd5b90816003811115610849577f4e487b7100000000000000000000000000000000000000000000000000000000600052602160045260246000fd5b815250505b5b8173ffffffffffffffffffffffffffffffffffffffff16816000015173ffffffffffffffffffffffffffffffffffffffff16146108bf5781816000019073ffffffffffffffffffffffffffffffffffffffff16908173ffffffffffffffffffffffffffffffffffffffff16815250505b50505050565b7fe29ae391d56380108ce928315a6cca9ba356584f5bc9cd9430d7208954f3a93781565b816003816040516108fa91906126dc565b908152602001604051809103902060000160009054906101000a900473ffffffffffffffffffffffffffffffffffffffff1673ffffffffffffffffffffffffffffffffffffffff163373ffffffffffffffffffffffffffffffffffffffff1614806109b25750600160009054906101000a900473ffffffffffffffffffffffffffffffffffffffff1673ffffffffffffffffffffffffffffffffffffffff163373ffffffffffffffffffffffffffffffffffffffff16145b6109f1576040517f08c379a00000000000000000000000000000000000000000000000000000000081526004016109e8906128c8565b60405180910390fd5b600460008373ffffffffffffffffffffffffffffffffffffffff1673ffffffffffffffffffffffffffffffffffffffff16815260200190815260200160002060009054906101000a900460ff16610a7d576040517f08c379a0000000000000000000000000000000000000000000000000000000008152600401610a7490612928565b60405180910390fd5b81600384604051610a8e91906126dc565b908152602001604051809103902060000160006101000a81548173ffffffffffffffffffffffffffffffffffffffff021916908373ffffffffffffffffffffffffffffffffffffffff160217905550505050565b6003818051602081018201805184825260208301602085012081835280955050505050506000915090508060000160009054906101000a900473ffffffffffffffffffffffffffffffffffffffff16908060010160009054906101000a900473ffffffffffffffffffffffffffffffffffffffff16908060010160149054906101000a90046bffffffffffffffffffffffff16908060020160009054906101000a90046bffffffffffffffffffffffff169080600201600c9054906101000a90046bffffffffffffffffffffffff16908060030160009054906101000a90046bffffffffffffffffffffffff1690806004018054610bdf90612c11565b80601f0160208091040260200160405190810160405280929190818152602001828054610c0b90612c11565b8015610c585780601f10610c2d57610100808354040283529160200191610c58565b820191906000526020600020905b815481529060010190602001808311610c3b57829003601f168201915b5050505050908060050160009054906101000a900460ff16908060050160019054906101000a900461ffff16905089565b60046020528060005260406000206000915054906101000a900460ff1681565b610cb1611eb0565b600382604051610cc191906126dc565b9081526020016040518091039020604051806101200160405290816000820160009054906101000a900473ffffffffffffffffffffffffffffffffffffffff1673ffffffffffffffffffffffffffffffffffffffff1673ffffffffffffffffffffffffffffffffffffffff1681526020016001820160009054906101000a900473ffffffffffffffffffffffffffffffffffffffff1673ffffffffffffffffffffffffffffffffffffffff1673ffffffffffffffffffffffffffffffffffffffff1681526020016001820160149054906101000a90046bffffffffffffffffffffffff166bffffffffffffffffffffffff166bffffffffffffffffffffffff1681526020016002820160009054906101000a90046bffffffffffffffffffffffff166bffffffffffffffffffffffff166bffffffffffffffffffffffff16815260200160028201600c9054906101000a90046bffffffffffffffffffffffff166bffffffffffffffffffffffff166bffffffffffffffffffffffff1681526020016003820160009054906101000a90046bffffffffffffffffffffffff166bffffffffffffffffffffffff166bffffffffffffffffffffffff168152602001600482018054610e8f90612c11565b80601f0160208091040260200160405190810160405280929190818152602001828054610ebb90612c11565b8015610f085780601f10610edd57610100808354040283529160200191610f08565b820191906000526020600020905b815481529060010190602001808311610eeb57829003601f168201915b505050505081526020016005820160009054906101000a900460ff166003811115610f5c577f4e487b7100000000000000000000000000000000000000000000000000000000600052602160045260246000fd5b6003811115610f94577f4e487b7100000000000000000000000000000000000000000000000000000000600052602160045260246000fd5b81526020016005820160019054906101000a900461ffff1661ffff1661ffff16815250509050919050565b600160009054906101000a900473ffffffffffffffffffffffffffffffffffffffff1673ffffffffffffffffffffffffffffffffffffffff163373ffffffffffffffffffffffffffffffffffffffff161461104f576040517f08c379a000000000000000000000000000000000000000000000000000000000815260040161104690612908565b60405180910390fd5b600060038260405161106191906126dc565b9081526020016040518091039020604051806101200160405290816000820160009054906101000a900473ffffffffffffffffffffffffffffffffffffffff1673ffffffffffffffffffffffffffffffffffffffff1673ffffffffffffffffffffffffffffffffffffffff1681526020016001820160009054906101000a900473ffffffffffffffffffffffffffffffffffffffff1673ffffffffffffffffffffffffffffffffffffffff1673ffffffffffffffffffffffffffffffffffffffff1681526020016001820160149054906101000a90046bffffffffffffffffffffffff166bffffffffffffffffffffffff166bffffffffffffffffffffffff1681526020016002820160009054906101000a90046bffffffffffffffffffffffff166bffffffffffffffffffffffff166bffffffffffffffffffffffff16815260200160028201600c9054906101000a90046bffffffffffffffffffffffff166bffffffffffffffffffffffff166bffffffffffffffffffffffff1681526020016003820160009054906101000a90046bffffffffffffffffffffffff166bffffffffffffffffffffffff166bffffffffffffffffffffffff16815260200160048201805461122f90612c11565b80601f016020809104026020016040519081016040528092919081815260200182805461125b90612c11565b80156112a85780601f1061127d576101008083540402835291602001916112a8565b820191906000526020600020905b81548152906001019060200180831161128b57829003601f168201915b505050505081526020016005820160009054906101000a900460ff1660038111156112fc577f4e487b7100000000000000000000000000000000000000000000000000000000600052602160045260246000fd5b6003811115611334577f4e487b7100000000000000000000000000000000000000000000000000000000600052602160045260246000fd5b81526020016005820160019054906101000a900461ffff1661ffff1661ffff1681525050905060038160e001906003811115611399577f4e487b7100000000000000000000000000000000000000000000000000000000600052602160045260246000fd5b908160038111156113d3577f4e487b7100000000000000000000000000000000000000000000000000000000600052602160045260246000fd5b815250507f72550304b060b84fb1965b7602034759f65a574b89be2930babf4fc5356abe96828260e0015160405161140c929190612898565b60405180910390a15050565b600160009054906101000a900473ffffffffffffffffffffffffffffffffffffffff1681565b6040518061012001604052808573ffffffffffffffffffffffffffffffffffffffff1681526020018673ffffffffffffffffffffffffffffffffffffffff168152602001846bffffffffffffffffffffffff16815260200160006bffffffffffffffffffffffff168152602001836bffffffffffffffffffffffff16815260200160006bffffffffffffffffffffffff16815260200182815260200160006003811115611514577f4e487b7100000000000000000000000000000000000000000000000000000000600052602160045260246000fd5b8152602001600061ffff1681525060038260405161153291906126dc565b908152602001604051809103902060008201518160000160006101000a81548173ffffffffffffffffffffffffffffffffffffffff021916908373ffffffffffffffffffffffffffffffffffffffff16021790555060208201518160010160006101000a81548173ffffffffffffffffffffffffffffffffffffffff021916908373ffffffffffffffffffffffffffffffffffffffff16021790555060408201518160010160146101000a8154816bffffffffffffffffffffffff02191690836bffffffffffffffffffffffff16021790555060608201518160020160006101000a8154816bffffffffffffffffffffffff02191690836bffffffffffffffffffffffff160217905550608082015181600201600c6101000a8154816bffffffffffffffffffffffff02191690836bffffffffffffffffffffffff16021790555060a08201518160030160006101000a8154816bffffffffffffffffffffffff02191690836bffffffffffffffffffffffff16021790555060c08201518160040190805190602001906116c6929190611f9c565b5060e08201518160050160006101000a81548160ff02191690836003811115611718577f4e487b7100000000000000000000000000000000000000000000000000000000600052602160045260246000fd5b02179055506101008201518160050160016101000a81548161ffff021916908361ffff1602179055509050507fbf264907becbe9032224e5c73b8f9c259d9925c669d303003745b4783806782281858585604051611779949392919061284c565b60405180910390a15050505050565b6040518060400160405280600d81526020017f4752414e5453204d6f64756c650000000000000000000000000000000000000081525081565b7fe3b859addf4ff702db3c81f356a5115754a64f22dd16b6175f26b4b444aac1ec81565b600160009054906101000a900473ffffffffffffffffffffffffffffffffffffffff1673ffffffffffffffffffffffffffffffffffffffff163373ffffffffffffffffffffffffffffffffffffffff1614611875576040517f08c379a000000000000000000000000000000000000000000000000000000000815260040161186c90612908565b60405180910390fd5b60005b815181101561192c576001600460008484815181106118c0577f4e487b7100000000000000000000000000000000000000000000000000000000600052603260045260246000fd5b602002602001015173ffffffffffffffffffffffffffffffffffffffff1673ffffffffffffffffffffffffffffffffffffffff16815260200190815260200160002060006101000a81548160ff021916908315150217905550808061192490612c43565b915050611878565b5050565b60008054906101000a900473ffffffffffffffffffffffffffffffffffffffff1681565b6040518060400160405280600581526020017f302e312e3000000000000000000000000000000000000000000000000000000081525081565b600060038260405161199f91906126dc565b9081526020016040518091039020604051806101200160405290816000820160009054906101000a900473ffffffffffffffffffffffffffffffffffffffff1673ffffffffffffffffffffffffffffffffffffffff1673ffffffffffffffffffffffffffffffffffffffff1681526020016001820160009054906101000a900473ffffffffffffffffffffffffffffffffffffffff1673ffffffffffffffffffffffffffffffffffffffff1673ffffffffffffffffffffffffffffffffffffffff1681526020016001820160149054906101000a90046bffffffffffffffffffffffff166bffffffffffffffffffffffff166bffffffffffffffffffffffff1681526020016002820160009054906101000a90046bffffffffffffffffffffffff166bffffffffffffffffffffffff166bffffffffffffffffffffffff16815260200160028201600c9054906101000a90046bffffffffffffffffffffffff166bffffffffffffffffffffffff166bffffffffffffffffffffffff1681526020016003820160009054906101000a90046bffffffffffffffffffffffff166bffffffffffffffffffffffff166bffffffffffffffffffffffff168152602001600482018054611b6d90612c11565b80601f0160208091040260200160405190810160405280929190818152602001828054611b9990612c11565b8015611be65780601f10611bbb57610100808354040283529160200191611be6565b820191906000526020600020905b815481529060010190602001808311611bc957829003601f168201915b505050505081526020016005820160009054906101000a900460ff166003811115611c3a577f4e487b7100000000000000000000000000000000000000000000000000000000600052602160045260246000fd5b6003811115611c72577f4e487b7100000000000000000000000000000000000000000000000000000000600052602160045260246000fd5b81526020016005820160019054906101000a900461ffff1661ffff1661ffff16815250509050600081608001518260400151611cae9190612aa9565b905081604001516bffffffffffffffffffffffff16818360600151611cd39190612a67565b6bffffffffffffffffffffffff161115611d22576040517f08c379a0000000000000000000000000000000000000000000000000000000008152600401611d19906128e8565b60405180910390fd5b60008054906101000a900473ffffffffffffffffffffffffffffffffffffffff1673ffffffffffffffffffffffffffffffffffffffff166323b872dd338460200151346040518463ffffffff1660e01b8152600401611d839392919061270e565b602060405180830381600087803b158015611d9d57600080fd5b505af1158015611db1573d6000803e3d6000fd5b505050506040513d601f19601f82011682018060405250810190611dd59190612275565b506001826101000151611de89190612a2f565b82610100019061ffff16908161ffff16815250508082606001818151611e0e9190612a67565b9150906bffffffffffffffffffffffff1690816bffffffffffffffffffffffff16815250507fec7712faaec1442b3b1e2d3bc482892aad111554d472dc28e9e44bb187b5658d8260000151836020015184608001518560a00151866040015187606001518860c001518960e0015160018b6101000151611e8e9190612ada565b604051611ea399989796959493929190612745565b60405180910390a1505050565b604051806101200160405280600073ffffffffffffffffffffffffffffffffffffffff168152602001600073ffffffffffffffffffffffffffffffffffffffff16815260200160006bffffffffffffffffffffffff16815260200160006bffffffffffffffffffffffff16815260200160006bffffffffffffffffffffffff16815260200160006bffffffffffffffffffffffff1681526020016060815260200160006003811115611f8b577f4e487b7100000000000000000000000000000000000000000000000000000000600052602160045260246000fd5b8152602001600061ffff1681525090565b828054611fa890612c11565b90600052602060002090601f016020900481019282611fca5760008555612011565b82601f10611fe357805160ff1916838001178555612011565b82800160010185558215612011579182015b82811115612010578251825591602001919060010190611ff5565b5b50905061201e9190612022565b5090565b5b8082111561203b576000816000905550600101612023565b5090565b600061205261204d8461299b565b61296a565b9050808382526020820190508285602086028201111561207157600080fd5b60005b858110156120a1578161208788826120e9565b845260208401935060208301925050600181019050612074565b5050509392505050565b60006120be6120b9846129c7565b61296a565b9050828152602081018484840111156120d657600080fd5b6120e1848285612bcf565b509392505050565b6000813590506120f881612d9c565b92915050565b600082601f83011261210f57600080fd5b813561211f84826020860161203f565b91505092915050565b60008151905061213781612db3565b92915050565b600082601f83011261214e57600080fd5b813561215e8482602086016120ab565b91505092915050565b60008135905061217681612dca565b92915050565b60006020828403121561218e57600080fd5b600061219c848285016120e9565b91505092915050565b600080600080600060a086880312156121bd57600080fd5b60006121cb888289016120e9565b95505060206121dc888289016120e9565b94505060406121ed88828901612167565b93505060606121fe88828901612167565b925050608086013567ffffffffffffffff81111561221b57600080fd5b6122278882890161213d565b9150509295509295909350565b60006020828403121561224657600080fd5b600082013567ffffffffffffffff81111561226057600080fd5b61226c848285016120fe565b91505092915050565b60006020828403121561228757600080fd5b600061229584828501612128565b91505092915050565b6000602082840312156122b057600080fd5b600082013567ffffffffffffffff8111156122ca57600080fd5b6122d68482850161213d565b91505092915050565b600080604083850312156122f257600080fd5b600083013567ffffffffffffffff81111561230c57600080fd5b6123188582860161213d565b9250506020612329858286016120e9565b9150509250929050565b60008060006060848603121561234857600080fd5b600084013567ffffffffffffffff81111561236257600080fd5b61236e8682870161213d565b935050602061237f86828701612167565b9250506040612390868287016120e9565b9150509250925092565b6123a381612b0e565b82525050565b6123b281612b0e565b82525050565b6123c181612b20565b82525050565b6123d081612b2c565b82525050565b6123df81612b99565b82525050565b6123ee81612bbd565b82525050565b6123fd81612bbd565b82525050565b600061240e826129f7565b6124188185612a02565b9350612428818560208601612bde565b61243181612d77565b840191505092915050565b6000612447826129f7565b6124518185612a13565b9350612461818560208601612bde565b61246a81612d77565b840191505092915050565b6000612480826129f7565b61248a8185612a24565b935061249a818560208601612bde565b80840191505092915050565b60006124b3603183612a13565b91507f4e6f7420617574686f72697a65643a206d7573742062652063757272656e742060008301527f64656c6567617465206f72206f776e65720000000000000000000000000000006020830152604082019050919050565b6000612519601c83612a13565b91507f5472616e736665722065786365656473206772616e74206c696d6974000000006000830152602082019050919050565b6000612559601d83612a13565b91507f4e6f7420617574686f72697a65643a206d757374206265206f776e65720000006000830152602082019050919050565b6000612599601c83612a13565b91507f4e65772064656c6567617465206973206e6f7420617070726f766564000000006000830152602082019050919050565b6000610120830160008301516125e5600086018261239a565b5060208301516125f8602086018261239a565b50604083015161260b60408601826126be565b50606083015161261e60608601826126be565b50608083015161263160808601826126be565b5060a083015161264460a08601826126be565b5060c083015184820360c086015261265c8282612403565b91505060e083015161267160e08601826123e5565b50610100830151612686610100860182612691565b508091505092915050565b61269a81612b49565b82525050565b6126a981612b49565b82525050565b6126b881612b77565b82525050565b6126c781612b81565b82525050565b6126d681612b81565b82525050565b60006126e88284612475565b915081905092915050565b600060208201905061270860008301846123a9565b92915050565b600060608201905061272360008301866123a9565b61273060208301856123a9565b61273d60408301846126af565b949350505050565b60006101208201905061275b600083018c6123a9565b612768602083018b6123a9565b612775604083018a6126cd565b61278260608301896126cd565b61278f60808301886126cd565b61279c60a08301876126cd565b81810360c08301526127ae818661243c565b90506127bd60e08301856123f4565b6127cb6101008301846126a0565b9a9950505050505050505050565b60006020820190506127ee60008301846123b8565b92915050565b600060208201905061280960008301846123c7565b92915050565b600060208201905061282460008301846123d6565b92915050565b60006020820190508181036000830152612844818461243c565b905092915050565b60006080820190508181036000830152612866818761243c565b905061287560208301866123a9565b61288260408301856126cd565b61288f60608301846126cd565b95945050505050565b600060408201905081810360008301526128b2818561243c565b90506128c160208301846123f4565b9392505050565b600060208201905081810360008301526128e1816124a6565b9050919050565b600060208201905081810360008301526129018161250c565b9050919050565b600060208201905081810360008301526129218161254c565b9050919050565b600060208201905081810360008301526129418161258c565b9050919050565b6000602082019050818103600083015261296281846125cc565b905092915050565b6000604051905081810181811067ffffffffffffffff8211171561299157612990612d48565b5b8060405250919050565b600067ffffffffffffffff8211156129b6576129b5612d48565b5b602082029050602081019050919050565b600067ffffffffffffffff8211156129e2576129e1612d48565b5b601f19601f8301169050602081019050919050565b600081519050919050565b600082825260208201905092915050565b600082825260208201905092915050565b600081905092915050565b6000612a3a82612b49565b9150612a4583612b49565b92508261ffff03821115612a5c57612a5b612c8c565b5b828201905092915050565b6000612a7282612b81565b9150612a7d83612b81565b9250826bffffffffffffffffffffffff03821115612a9e57612a9d612c8c565b5b828201905092915050565b6000612ab482612b81565b9150612abf83612b81565b925082612acf57612ace612cbb565b5b828204905092915050565b6000612ae582612b49565b9150612af083612b49565b925082821015612b0357612b02612c8c565b5b828203905092915050565b6000612b1982612b57565b9050919050565b60008115159050919050565b6000819050919050565b6000819050612b4482612d88565b919050565b600061ffff82169050919050565b600073ffffffffffffffffffffffffffffffffffffffff82169050919050565b6000819050919050565b60006bffffffffffffffffffffffff82169050919050565b6000612ba482612bab565b9050919050565b6000612bb682612b57565b9050919050565b6000612bc882612b36565b9050919050565b82818337600083830152505050565b60005b83811015612bfc578082015181840152602081019050612be1565b83811115612c0b576000848401525b50505050565b60006002820490506001821680612c2957607f821691505b60208210811415612c3d57612c3c612d19565b5b50919050565b6000612c4e82612b77565b91507fffffffffffffffffffffffffffffffffffffffffffffffffffffffffffffffff821415612c8157612c80612c8c565b5b600182019050919050565b7f4e487b7100000000000000000000000000000000000000000000000000000000600052601160045260246000fd5b7f4e487b7100000000000000000000000000000000000000000000000000000000600052601260045260246000fd5b7f4e487b7100000000000000000000000000000000000000000000000000000000600052602160045260246000fd5b7f4e487b7100000000000000000000000000000000000000000000000000000000600052602260045260246000fd5b7f4e487b7100000000000000000000000000000000000000000000000000000000600052604160045260246000fd5b6000601f19601f8301169050919050565b60048110612d9957612d98612cea565b5b50565b612da581612b0e565b8114612db057600080fd5b50565b612dbc81612b20565b8114612dc757600080fd5b50565b612dd381612b81565b8114612dde57600080fd5b5056fea26469706673582212202ed94e491b0c89508523ff57c21850423e41d73c2a9322223c27c18cbbb1867164736f6c63430008000033","opcodes":"PUSH1 0x80 PUSH1 0x40 MSTORE CALLVALUE DUP1 ISZERO PUSH3 0x11 JUMPI PUSH1 0x0 DUP1 REVERT JUMPDEST POP PUSH1 0x40 MLOAD PUSH3 0x2FDA CODESIZE SUB DUP1 PUSH3 0x2FDA DUP4 CODECOPY DUP2 DUP2 ADD PUSH1 0x40 MSTORE DUP2 ADD SWAP1 PUSH3 0x37 SWAP2 SWAP1 PUSH3 0x139 JUMP JUMPDEST CALLER PUSH1 0x1 PUSH1 0x0 PUSH2 0x100 EXP DUP2 SLOAD DUP2 PUSH20 0xFFFFFFFFFFFFFFFFFFFFFFFFFFFFFFFFFFFFFFFF MUL NOT AND SWAP1 DUP4 PUSH20 0xFFFFFFFFFFFFFFFFFFFFFFFFFFFFFFFFFFFFFFFF AND MUL OR SWAP1 SSTORE POP DUP1 PUSH1 0x2 PUSH1 0x0 PUSH2 0x100 EXP DUP2 SLOAD DUP2 PUSH20 0xFFFFFFFFFFFFFFFFFFFFFFFFFFFFFFFFFFFFFFFF MUL NOT AND SWAP1 DUP4 PUSH20 0xFFFFFFFFFFFFFFFFFFFFFFFFFFFFFFFFFFFFFFFF AND MUL OR SWAP1 SSTORE POP PUSH1 0x2 PUSH1 0x0 SWAP1 SLOAD SWAP1 PUSH2 0x100 EXP SWAP1 DIV PUSH20 0xFFFFFFFFFFFFFFFFFFFFFFFFFFFFFFFFFFFFFFFF AND PUSH1 0x0 DUP1 PUSH2 0x100 EXP DUP2 SLOAD DUP2 PUSH20 0xFFFFFFFFFFFFFFFFFFFFFFFFFFFFFFFFFFFFFFFF MUL NOT AND SWAP1 DUP4 PUSH20 0xFFFFFFFFFFFFFFFFFFFFFFFFFFFFFFFFFFFFFFFF AND MUL OR SWAP1 SSTORE POP POP PUSH3 0x1B3 JUMP JUMPDEST PUSH1 0x0 DUP2 MLOAD SWAP1 POP PUSH3 0x133 DUP2 PUSH3 0x199 JUMP JUMPDEST SWAP3 SWAP2 POP POP JUMP JUMPDEST PUSH1 0x0 PUSH1 0x20 DUP3 DUP5 SUB SLT ISZERO PUSH3 0x14C JUMPI PUSH1 0x0 DUP1 REVERT JUMPDEST PUSH1 0x0 PUSH3 0x15C DUP5 DUP3 DUP6 ADD PUSH3 0x122 JUMP JUMPDEST SWAP2 POP POP SWAP3 SWAP2 POP POP JUMP JUMPDEST PUSH1 0x0 PUSH3 0x172 DUP3 PUSH3 0x179 JUMP JUMPDEST SWAP1 POP SWAP2 SWAP1 POP JUMP JUMPDEST PUSH1 0x0 PUSH20 0xFFFFFFFFFFFFFFFFFFFFFFFFFFFFFFFFFFFFFFFF DUP3 AND SWAP1 POP SWAP2 SWAP1 POP JUMP JUMPDEST PUSH3 0x1A4 DUP2 PUSH3 0x165 JUMP JUMPDEST DUP2 EQ PUSH3 0x1B0 JUMPI PUSH1 0x0 DUP1 REVERT JUMPDEST POP JUMP JUMPDEST PUSH2 0x2E17 DUP1 PUSH3 0x1C3 PUSH1 0x0 CODECOPY PUSH1 0x0 RETURN INVALID PUSH1 0x80 PUSH1 0x40 MSTORE PUSH1 0x4 CALLDATASIZE LT PUSH2 0xDD JUMPI PUSH1 0x0 CALLDATALOAD PUSH1 0xE0 SHR DUP1 PUSH4 0x8DA5CB5B GT PUSH2 0x7F JUMPI DUP1 PUSH4 0xE1AD0377 GT PUSH2 0x59 JUMPI DUP1 PUSH4 0xE1AD0377 EQ PUSH2 0x2B9 JUMPI DUP1 PUSH4 0xEB700373 EQ PUSH2 0x2E4 JUMPI DUP1 PUSH4 0xFC0C546A EQ PUSH2 0x30D JUMPI DUP1 PUSH4 0xFFA1AD74 EQ PUSH2 0x338 JUMPI PUSH2 0xDD JUMP JUMPDEST DUP1 PUSH4 0x8DA5CB5B EQ PUSH2 0x23A JUMPI DUP1 PUSH4 0x90E1EBDA EQ PUSH2 0x265 JUMPI DUP1 PUSH4 0xA3F4DF7E EQ PUSH2 0x28E JUMPI PUSH2 0xDD JUMP JUMPDEST DUP1 PUSH4 0x33AEC12A GT PUSH2 0xBB JUMPI DUP1 PUSH4 0x33AEC12A EQ PUSH2 0x152 JUMPI DUP1 PUSH4 0x46015978 EQ PUSH2 0x197 JUMPI DUP1 PUSH4 0x4B531C05 EQ PUSH2 0x1D4 JUMPI DUP1 PUSH4 0x6C2B6EF9 EQ PUSH2 0x211 JUMPI PUSH2 0xDD JUMP JUMPDEST DUP1 PUSH4 0xC1F5972 EQ PUSH2 0xE2 JUMPI DUP1 PUSH4 0x1DB61B54 EQ PUSH2 0xFE JUMPI DUP1 PUSH4 0x1F62BD01 EQ PUSH2 0x129 JUMPI JUMPDEST PUSH1 0x0 DUP1 REVERT JUMPDEST PUSH2 0xFC PUSH1 0x4 DUP1 CALLDATASIZE SUB DUP2 ADD SWAP1 PUSH2 0xF7 SWAP2 SWAP1 PUSH2 0x2333 JUMP JUMPDEST PUSH2 0x363 JUMP JUMPDEST STOP JUMPDEST CALLVALUE DUP1 ISZERO PUSH2 0x10A JUMPI PUSH1 0x0 DUP1 REVERT JUMPDEST POP PUSH2 0x113 PUSH2 0x8C5 JUMP JUMPDEST PUSH1 0x40 MLOAD PUSH2 0x120 SWAP2 SWAP1 PUSH2 0x27F4 JUMP JUMPDEST PUSH1 0x40 MLOAD DUP1 SWAP2 SUB SWAP1 RETURN JUMPDEST CALLVALUE DUP1 ISZERO PUSH2 0x135 JUMPI PUSH1 0x0 DUP1 REVERT JUMPDEST POP PUSH2 0x150 PUSH1 0x4 DUP1 CALLDATASIZE SUB DUP2 ADD SWAP1 PUSH2 0x14B SWAP2 SWAP1 PUSH2 0x22DF JUMP JUMPDEST PUSH2 0x8E9 JUMP JUMPDEST STOP JUMPDEST CALLVALUE DUP1 ISZERO PUSH2 0x15E JUMPI PUSH1 0x0 DUP1 REVERT JUMPDEST POP PUSH2 0x179 PUSH1 0x4 DUP1 CALLDATASIZE SUB DUP2 ADD SWAP1 PUSH2 0x174 SWAP2 SWAP1 PUSH2 0x229E JUMP JUMPDEST PUSH2 0xAE2 JUMP JUMPDEST PUSH1 0x40 MLOAD PUSH2 0x18E SWAP10 SWAP9 SWAP8 SWAP7 SWAP6 SWAP5 SWAP4 SWAP3 SWAP2 SWAP1 PUSH2 0x2745 JUMP JUMPDEST PUSH1 0x40 MLOAD DUP1 SWAP2 SUB SWAP1 RETURN JUMPDEST CALLVALUE DUP1 ISZERO PUSH2 0x1A3 JUMPI PUSH1 0x0 DUP1 REVERT JUMPDEST POP PUSH2 0x1BE PUSH1 0x4 DUP1 CALLDATASIZE SUB DUP2 ADD SWAP1 PUSH2 0x1B9 SWAP2 SWAP1 PUSH2 0x217C JUMP JUMPDEST PUSH2 0xC89 JUMP JUMPDEST PUSH1 0x40 MLOAD PUSH2 0x1CB SWAP2 SWAP1 PUSH2 0x27D9 JUMP JUMPDEST PUSH1 0x40 MLOAD DUP1 SWAP2 SUB SWAP1 RETURN JUMPDEST CALLVALUE DUP1 ISZERO PUSH2 0x1E0 JUMPI PUSH1 0x0 DUP1 REVERT JUMPDEST POP PUSH2 0x1FB PUSH1 0x4 DUP1 CALLDATASIZE SUB DUP2 ADD SWAP1 PUSH2 0x1F6 SWAP2 SWAP1 PUSH2 0x229E JUMP JUMPDEST PUSH2 0xCA9 JUMP JUMPDEST PUSH1 0x40 MLOAD PUSH2 0x208 SWAP2 SWAP1 PUSH2 0x2948 JUMP JUMPDEST PUSH1 0x40 MLOAD DUP1 SWAP2 SUB SWAP1 RETURN JUMPDEST CALLVALUE DUP1 ISZERO PUSH2 0x21D JUMPI PUSH1 0x0 DUP1 REVERT JUMPDEST POP PUSH2 0x238 PUSH1 0x4 DUP1 CALLDATASIZE SUB DUP2 ADD SWAP1 PUSH2 0x233 SWAP2 SWAP1 PUSH2 0x229E JUMP JUMPDEST PUSH2 0xFBF JUMP JUMPDEST STOP JUMPDEST CALLVALUE DUP1 ISZERO PUSH2 0x246 JUMPI PUSH1 0x0 DUP1 REVERT JUMPDEST POP PUSH2 0x24F PUSH2 0x1418 JUMP JUMPDEST PUSH1 0x40 MLOAD PUSH2 0x25C SWAP2 SWAP1 PUSH2 0x26F3 JUMP JUMPDEST PUSH1 0x40 MLOAD DUP1 SWAP2 SUB SWAP1 RETURN JUMPDEST CALLVALUE DUP1 ISZERO PUSH2 0x271 JUMPI PUSH1 0x0 DUP1 REVERT JUMPDEST POP PUSH2 0x28C PUSH1 0x4 DUP1 CALLDATASIZE SUB DUP2 ADD SWAP1 PUSH2 0x287 SWAP2 SWAP1 PUSH2 0x21A5 JUMP JUMPDEST PUSH2 0x143E JUMP JUMPDEST STOP JUMPDEST CALLVALUE DUP1 ISZERO PUSH2 0x29A JUMPI PUSH1 0x0 DUP1 REVERT JUMPDEST POP PUSH2 0x2A3 PUSH2 0x1788 JUMP JUMPDEST PUSH1 0x40 MLOAD PUSH2 0x2B0 SWAP2 SWAP1 PUSH2 0x282A JUMP JUMPDEST PUSH1 0x40 MLOAD DUP1 SWAP2 SUB SWAP1 RETURN JUMPDEST CALLVALUE DUP1 ISZERO PUSH2 0x2C5 JUMPI PUSH1 0x0 DUP1 REVERT JUMPDEST POP PUSH2 0x2CE PUSH2 0x17C1 JUMP JUMPDEST PUSH1 0x40 MLOAD PUSH2 0x2DB SWAP2 SWAP1 PUSH2 0x27F4 JUMP JUMPDEST PUSH1 0x40 MLOAD DUP1 SWAP2 SUB SWAP1 RETURN JUMPDEST CALLVALUE DUP1 ISZERO PUSH2 0x2F0 JUMPI PUSH1 0x0 DUP1 REVERT JUMPDEST POP PUSH2 0x30B PUSH1 0x4 DUP1 CALLDATASIZE SUB DUP2 ADD SWAP1 PUSH2 0x306 SWAP2 SWAP1 PUSH2 0x2234 JUMP JUMPDEST PUSH2 0x17E5 JUMP JUMPDEST STOP JUMPDEST CALLVALUE DUP1 ISZERO PUSH2 0x319 JUMPI PUSH1 0x0 DUP1 REVERT JUMPDEST POP PUSH2 0x322 PUSH2 0x1930 JUMP JUMPDEST PUSH1 0x40 MLOAD PUSH2 0x32F SWAP2 SWAP1 PUSH2 0x280F JUMP JUMPDEST PUSH1 0x40 MLOAD DUP1 SWAP2 SUB SWAP1 RETURN JUMPDEST CALLVALUE DUP1 ISZERO PUSH2 0x344 JUMPI PUSH1 0x0 DUP1 REVERT JUMPDEST POP PUSH2 0x34D PUSH2 0x1954 JUMP JUMPDEST PUSH1 0x40 MLOAD PUSH2 0x35A SWAP2 SWAP1 PUSH2 0x282A JUMP JUMPDEST PUSH1 0x40 MLOAD DUP1 SWAP2 SUB SWAP1 RETURN JUMPDEST PUSH1 0x0 PUSH1 0x3 DUP5 PUSH1 0x40 MLOAD PUSH2 0x375 SWAP2 SWAP1 PUSH2 0x26DC JUMP JUMPDEST SWAP1 DUP2 MSTORE PUSH1 0x20 ADD PUSH1 0x40 MLOAD DUP1 SWAP2 SUB SWAP1 KECCAK256 PUSH1 0x40 MLOAD DUP1 PUSH2 0x120 ADD PUSH1 0x40 MSTORE SWAP1 DUP2 PUSH1 0x0 DUP3 ADD PUSH1 0x0 SWAP1 SLOAD SWAP1 PUSH2 0x100 EXP SWAP1 DIV PUSH20 0xFFFFFFFFFFFFFFFFFFFFFFFFFFFFFFFFFFFFFFFF AND PUSH20 0xFFFFFFFFFFFFFFFFFFFFFFFFFFFFFFFFFFFFFFFF AND PUSH20 0xFFFFFFFFFFFFFFFFFFFFFFFFFFFFFFFFFFFFFFFF AND DUP2 MSTORE PUSH1 0x20 ADD PUSH1 0x1 DUP3 ADD PUSH1 0x0 SWAP1 SLOAD SWAP1 PUSH2 0x100 EXP SWAP1 DIV PUSH20 0xFFFFFFFFFFFFFFFFFFFFFFFFFFFFFFFFFFFFFFFF AND PUSH20 0xFFFFFFFFFFFFFFFFFFFFFFFFFFFFFFFFFFFFFFFF AND PUSH20 0xFFFFFFFFFFFFFFFFFFFFFFFFFFFFFFFFFFFFFFFF AND DUP2 MSTORE PUSH1 0x20 ADD PUSH1 0x1 DUP3 ADD PUSH1 0x14 SWAP1 SLOAD SWAP1 PUSH2 0x100 EXP SWAP1 DIV PUSH12 0xFFFFFFFFFFFFFFFFFFFFFFFF AND PUSH12 0xFFFFFFFFFFFFFFFFFFFFFFFF AND PUSH12 0xFFFFFFFFFFFFFFFFFFFFFFFF AND DUP2 MSTORE PUSH1 0x20 ADD PUSH1 0x2 DUP3 ADD PUSH1 0x0 SWAP1 SLOAD SWAP1 PUSH2 0x100 EXP SWAP1 DIV PUSH12 0xFFFFFFFFFFFFFFFFFFFFFFFF AND PUSH12 0xFFFFFFFFFFFFFFFFFFFFFFFF AND PUSH12 0xFFFFFFFFFFFFFFFFFFFFFFFF AND DUP2 MSTORE PUSH1 0x20 ADD PUSH1 0x2 DUP3 ADD PUSH1 0xC SWAP1 SLOAD SWAP1 PUSH2 0x100 EXP SWAP1 DIV PUSH12 0xFFFFFFFFFFFFFFFFFFFFFFFF AND PUSH12 0xFFFFFFFFFFFFFFFFFFFFFFFF AND PUSH12 0xFFFFFFFFFFFFFFFFFFFFFFFF AND DUP2 MSTORE PUSH1 0x20 ADD PUSH1 0x3 DUP3 ADD PUSH1 0x0 SWAP1 SLOAD SWAP1 PUSH2 0x100 EXP SWAP1 DIV PUSH12 0xFFFFFFFFFFFFFFFFFFFFFFFF AND PUSH12 0xFFFFFFFFFFFFFFFFFFFFFFFF AND PUSH12 0xFFFFFFFFFFFFFFFFFFFFFFFF AND DUP2 MSTORE PUSH1 0x20 ADD PUSH1 0x4 DUP3 ADD DUP1 SLOAD PUSH2 0x543 SWAP1 PUSH2 0x2C11 JUMP JUMPDEST DUP1 PUSH1 0x1F ADD PUSH1 0x20 DUP1 SWAP2 DIV MUL PUSH1 0x20 ADD PUSH1 0x40 MLOAD SWAP1 DUP2 ADD PUSH1 0x40 MSTORE DUP1 SWAP3 SWAP2 SWAP1 DUP2 DUP2 MSTORE PUSH1 0x20 ADD DUP3 DUP1 SLOAD PUSH2 0x56F SWAP1 PUSH2 0x2C11 JUMP JUMPDEST DUP1 ISZERO PUSH2 0x5BC JUMPI DUP1 PUSH1 0x1F LT PUSH2 0x591 JUMPI PUSH2 0x100 DUP1 DUP4 SLOAD DIV MUL DUP4 MSTORE SWAP2 PUSH1 0x20 ADD SWAP2 PUSH2 0x5BC JUMP JUMPDEST DUP3 ADD SWAP2 SWAP1 PUSH1 0x0 MSTORE PUSH1 0x20 PUSH1 0x0 KECCAK256 SWAP1 JUMPDEST DUP2 SLOAD DUP2 MSTORE SWAP1 PUSH1 0x1 ADD SWAP1 PUSH1 0x20 ADD DUP1 DUP4 GT PUSH2 0x59F JUMPI DUP3 SWAP1 SUB PUSH1 0x1F AND DUP3 ADD SWAP2 JUMPDEST POP POP POP POP POP DUP2 MSTORE PUSH1 0x20 ADD PUSH1 0x5 DUP3 ADD PUSH1 0x0 SWAP1 SLOAD SWAP1 PUSH2 0x100 EXP SWAP1 DIV PUSH1 0xFF AND PUSH1 0x3 DUP2 GT ISZERO PUSH2 0x610 JUMPI PUSH32 0x4E487B7100000000000000000000000000000000000000000000000000000000 PUSH1 0x0 MSTORE PUSH1 0x21 PUSH1 0x4 MSTORE PUSH1 0x24 PUSH1 0x0 REVERT JUMPDEST PUSH1 0x3 DUP2 GT ISZERO PUSH2 0x648 JUMPI PUSH32 0x4E487B7100000000000000000000000000000000000000000000000000000000 PUSH1 0x0 MSTORE PUSH1 0x21 PUSH1 0x4 MSTORE PUSH1 0x24 PUSH1 0x0 REVERT JUMPDEST DUP2 MSTORE PUSH1 0x20 ADD PUSH1 0x5 DUP3 ADD PUSH1 0x1 SWAP1 SLOAD SWAP1 PUSH2 0x100 EXP SWAP1 DIV PUSH2 0xFFFF AND PUSH2 0xFFFF AND PUSH2 0xFFFF AND DUP2 MSTORE POP POP SWAP1 POP DUP3 PUSH12 0xFFFFFFFFFFFFFFFFFFFFFFFF AND DUP2 PUSH1 0xA0 ADD MLOAD PUSH12 0xFFFFFFFFFFFFFFFFFFFFFFFF AND EQ PUSH2 0x84F JUMPI DUP3 DUP2 PUSH1 0xA0 ADD SWAP1 PUSH12 0xFFFFFFFFFFFFFFFFFFFFFFFF AND SWAP1 DUP2 PUSH12 0xFFFFFFFFFFFFFFFFFFFFFFFF AND DUP2 MSTORE POP POP PUSH2 0x6C6 DUP5 PUSH2 0x198D JUMP JUMPDEST DUP3 PUSH12 0xFFFFFFFFFFFFFFFFFFFFFFFF AND DUP2 PUSH1 0x80 ADD MLOAD PUSH12 0xFFFFFFFFFFFFFFFFFFFFFFFF AND EQ ISZERO PUSH2 0x7A9 JUMPI PUSH1 0x2 DUP2 PUSH1 0xE0 ADD SWAP1 PUSH1 0x3 DUP2 GT ISZERO PUSH2 0x72D JUMPI PUSH32 0x4E487B7100000000000000000000000000000000000000000000000000000000 PUSH1 0x0 MSTORE PUSH1 0x21 PUSH1 0x4 MSTORE PUSH1 0x24 PUSH1 0x0 REVERT JUMPDEST SWAP1 DUP2 PUSH1 0x3 DUP2 GT ISZERO PUSH2 0x767 JUMPI PUSH32 0x4E487B7100000000000000000000000000000000000000000000000000000000 PUSH1 0x0 MSTORE PUSH1 0x21 PUSH1 0x4 MSTORE PUSH1 0x24 PUSH1 0x0 REVERT JUMPDEST DUP2 MSTORE POP POP PUSH32 0x917B135D16171ACE46753A2E622D103AD36702BC83E7E15D4613E23819B7195F DUP5 DUP3 PUSH1 0xE0 ADD MLOAD PUSH1 0x40 MLOAD PUSH2 0x7A0 SWAP3 SWAP2 SWAP1 PUSH2 0x2898 JUMP JUMPDEST PUSH1 0x40 MLOAD DUP1 SWAP2 SUB SWAP1 LOG1 JUMPDEST DUP3 PUSH12 0xFFFFFFFFFFFFFFFFFFFFFFFF AND DUP2 PUSH1 0x80 ADD MLOAD PUSH12 0xFFFFFFFFFFFFFFFFFFFFFFFF AND EQ PUSH2 0x84E JUMPI PUSH1 0x1 DUP2 PUSH1 0xE0 ADD SWAP1 PUSH1 0x3 DUP2 GT ISZERO PUSH2 0x80F JUMPI PUSH32 0x4E487B7100000000000000000000000000000000000000000000000000000000 PUSH1 0x0 MSTORE PUSH1 0x21 PUSH1 0x4 MSTORE PUSH1 0x24 PUSH1 0x0 REVERT JUMPDEST SWAP1 DUP2 PUSH1 0x3 DUP2 GT ISZERO PUSH2 0x849 JUMPI PUSH32 0x4E487B7100000000000000000000000000000000000000000000000000000000 PUSH1 0x0 MSTORE PUSH1 0x21 PUSH1 0x4 MSTORE PUSH1 0x24 PUSH1 0x0 REVERT JUMPDEST DUP2 MSTORE POP POP JUMPDEST JUMPDEST DUP2 PUSH20 0xFFFFFFFFFFFFFFFFFFFFFFFFFFFFFFFFFFFFFFFF AND DUP2 PUSH1 0x0 ADD MLOAD PUSH20 0xFFFFFFFFFFFFFFFFFFFFFFFFFFFFFFFFFFFFFFFF AND EQ PUSH2 0x8BF JUMPI DUP2 DUP2 PUSH1 0x0 ADD SWAP1 PUSH20 0xFFFFFFFFFFFFFFFFFFFFFFFFFFFFFFFFFFFFFFFF AND SWAP1 DUP2 PUSH20 0xFFFFFFFFFFFFFFFFFFFFFFFFFFFFFFFFFFFFFFFF AND DUP2 MSTORE POP POP JUMPDEST POP POP POP POP JUMP JUMPDEST PUSH32 0xE29AE391D56380108CE928315A6CCA9BA356584F5BC9CD9430D7208954F3A937 DUP2 JUMP JUMPDEST DUP2 PUSH1 0x3 DUP2 PUSH1 0x40 MLOAD PUSH2 0x8FA SWAP2 SWAP1 PUSH2 0x26DC JUMP JUMPDEST SWAP1 DUP2 MSTORE PUSH1 0x20 ADD PUSH1 0x40 MLOAD DUP1 SWAP2 SUB SWAP1 KECCAK256 PUSH1 0x0 ADD PUSH1 0x0 SWAP1 SLOAD SWAP1 PUSH2 0x100 EXP SWAP1 DIV PUSH20 0xFFFFFFFFFFFFFFFFFFFFFFFFFFFFFFFFFFFFFFFF AND PUSH20 0xFFFFFFFFFFFFFFFFFFFFFFFFFFFFFFFFFFFFFFFF AND CALLER PUSH20 0xFFFFFFFFFFFFFFFFFFFFFFFFFFFFFFFFFFFFFFFF AND EQ DUP1 PUSH2 0x9B2 JUMPI POP PUSH1 0x1 PUSH1 0x0 SWAP1 SLOAD SWAP1 PUSH2 0x100 EXP SWAP1 DIV PUSH20 0xFFFFFFFFFFFFFFFFFFFFFFFFFFFFFFFFFFFFFFFF AND PUSH20 0xFFFFFFFFFFFFFFFFFFFFFFFFFFFFFFFFFFFFFFFF AND CALLER PUSH20 0xFFFFFFFFFFFFFFFFFFFFFFFFFFFFFFFFFFFFFFFF AND EQ JUMPDEST PUSH2 0x9F1 JUMPI PUSH1 0x40 MLOAD PUSH32 0x8C379A000000000000000000000000000000000000000000000000000000000 DUP2 MSTORE PUSH1 0x4 ADD PUSH2 0x9E8 SWAP1 PUSH2 0x28C8 JUMP JUMPDEST PUSH1 0x40 MLOAD DUP1 SWAP2 SUB SWAP1 REVERT JUMPDEST PUSH1 0x4 PUSH1 0x0 DUP4 PUSH20 0xFFFFFFFFFFFFFFFFFFFFFFFFFFFFFFFFFFFFFFFF AND PUSH20 0xFFFFFFFFFFFFFFFFFFFFFFFFFFFFFFFFFFFFFFFF AND DUP2 MSTORE PUSH1 0x20 ADD SWAP1 DUP2 MSTORE PUSH1 0x20 ADD PUSH1 0x0 KECCAK256 PUSH1 0x0 SWAP1 SLOAD SWAP1 PUSH2 0x100 EXP SWAP1 DIV PUSH1 0xFF AND PUSH2 0xA7D JUMPI PUSH1 0x40 MLOAD PUSH32 0x8C379A000000000000000000000000000000000000000000000000000000000 DUP2 MSTORE PUSH1 0x4 ADD PUSH2 0xA74 SWAP1 PUSH2 0x2928 JUMP JUMPDEST PUSH1 0x40 MLOAD DUP1 SWAP2 SUB SWAP1 REVERT JUMPDEST DUP2 PUSH1 0x3 DUP5 PUSH1 0x40 MLOAD PUSH2 0xA8E SWAP2 SWAP1 PUSH2 0x26DC JUMP JUMPDEST SWAP1 DUP2 MSTORE PUSH1 0x20 ADD PUSH1 0x40 MLOAD DUP1 SWAP2 SUB SWAP1 KECCAK256 PUSH1 0x0 ADD PUSH1 0x0 PUSH2 0x100 EXP DUP2 SLOAD DUP2 PUSH20 0xFFFFFFFFFFFFFFFFFFFFFFFFFFFFFFFFFFFFFFFF MUL NOT AND SWAP1 DUP4 PUSH20 0xFFFFFFFFFFFFFFFFFFFFFFFFFFFFFFFFFFFFFFFF AND MUL OR SWAP1 SSTORE POP POP POP POP JUMP JUMPDEST PUSH1 0x3 DUP2 DUP1 MLOAD PUSH1 0x20 DUP2 ADD DUP3 ADD DUP1 MLOAD DUP5 DUP3 MSTORE PUSH1 0x20 DUP4 ADD PUSH1 0x20 DUP6 ADD KECCAK256 DUP2 DUP4 MSTORE DUP1 SWAP6 POP POP POP POP POP POP PUSH1 0x0 SWAP2 POP SWAP1 POP DUP1 PUSH1 0x0 ADD PUSH1 0x0 SWAP1 SLOAD SWAP1 PUSH2 0x100 EXP SWAP1 DIV PUSH20 0xFFFFFFFFFFFFFFFFFFFFFFFFFFFFFFFFFFFFFFFF AND SWAP1 DUP1 PUSH1 0x1 ADD PUSH1 0x0 SWAP1 SLOAD SWAP1 PUSH2 0x100 EXP SWAP1 DIV PUSH20 0xFFFFFFFFFFFFFFFFFFFFFFFFFFFFFFFFFFFFFFFF AND SWAP1 DUP1 PUSH1 0x1 ADD PUSH1 0x14 SWAP1 SLOAD SWAP1 PUSH2 0x100 EXP SWAP1 DIV PUSH12 0xFFFFFFFFFFFFFFFFFFFFFFFF AND SWAP1 DUP1 PUSH1 0x2 ADD PUSH1 0x0 SWAP1 SLOAD SWAP1 PUSH2 0x100 EXP SWAP1 DIV PUSH12 0xFFFFFFFFFFFFFFFFFFFFFFFF AND SWAP1 DUP1 PUSH1 0x2 ADD PUSH1 0xC SWAP1 SLOAD SWAP1 PUSH2 0x100 EXP SWAP1 DIV PUSH12 0xFFFFFFFFFFFFFFFFFFFFFFFF AND SWAP1 DUP1 PUSH1 0x3 ADD PUSH1 0x0 SWAP1 SLOAD SWAP1 PUSH2 0x100 EXP SWAP1 DIV PUSH12 0xFFFFFFFFFFFFFFFFFFFFFFFF AND SWAP1 DUP1 PUSH1 0x4 ADD DUP1 SLOAD PUSH2 0xBDF SWAP1 PUSH2 0x2C11 JUMP JUMPDEST DUP1 PUSH1 0x1F ADD PUSH1 0x20 DUP1 SWAP2 DIV MUL PUSH1 0x20 ADD PUSH1 0x40 MLOAD SWAP1 DUP2 ADD PUSH1 0x40 MSTORE DUP1 SWAP3 SWAP2 SWAP1 DUP2 DUP2 MSTORE PUSH1 0x20 ADD DUP3 DUP1 SLOAD PUSH2 0xC0B SWAP1 PUSH2 0x2C11 JUMP JUMPDEST DUP1 ISZERO PUSH2 0xC58 JUMPI DUP1 PUSH1 0x1F LT PUSH2 0xC2D JUMPI PUSH2 0x100 DUP1 DUP4 SLOAD DIV MUL DUP4 MSTORE SWAP2 PUSH1 0x20 ADD SWAP2 PUSH2 0xC58 JUMP JUMPDEST DUP3 ADD SWAP2 SWAP1 PUSH1 0x0 MSTORE PUSH1 0x20 PUSH1 0x0 KECCAK256 SWAP1 JUMPDEST DUP2 SLOAD DUP2 MSTORE SWAP1 PUSH1 0x1 ADD SWAP1 PUSH1 0x20 ADD DUP1 DUP4 GT PUSH2 0xC3B JUMPI DUP3 SWAP1 SUB PUSH1 0x1F AND DUP3 ADD SWAP2 JUMPDEST POP POP POP POP POP SWAP1 DUP1 PUSH1 0x5 ADD PUSH1 0x0 SWAP1 SLOAD SWAP1 PUSH2 0x100 EXP SWAP1 DIV PUSH1 0xFF AND SWAP1 DUP1 PUSH1 0x5 ADD PUSH1 0x1 SWAP1 SLOAD SWAP1 PUSH2 0x100 EXP SWAP1 DIV PUSH2 0xFFFF AND SWAP1 POP DUP10 JUMP JUMPDEST PUSH1 0x4 PUSH1 0x20 MSTORE DUP1 PUSH1 0x0 MSTORE PUSH1 0x40 PUSH1 0x0 KECCAK256 PUSH1 0x0 SWAP2 POP SLOAD SWAP1 PUSH2 0x100 EXP SWAP1 DIV PUSH1 0xFF AND DUP2 JUMP JUMPDEST PUSH2 0xCB1 PUSH2 0x1EB0 JUMP JUMPDEST PUSH1 0x3 DUP3 PUSH1 0x40 MLOAD PUSH2 0xCC1 SWAP2 SWAP1 PUSH2 0x26DC JUMP JUMPDEST SWAP1 DUP2 MSTORE PUSH1 0x20 ADD PUSH1 0x40 MLOAD DUP1 SWAP2 SUB SWAP1 KECCAK256 PUSH1 0x40 MLOAD DUP1 PUSH2 0x120 ADD PUSH1 0x40 MSTORE SWAP1 DUP2 PUSH1 0x0 DUP3 ADD PUSH1 0x0 SWAP1 SLOAD SWAP1 PUSH2 0x100 EXP SWAP1 DIV PUSH20 0xFFFFFFFFFFFFFFFFFFFFFFFFFFFFFFFFFFFFFFFF AND PUSH20 0xFFFFFFFFFFFFFFFFFFFFFFFFFFFFFFFFFFFFFFFF AND PUSH20 0xFFFFFFFFFFFFFFFFFFFFFFFFFFFFFFFFFFFFFFFF AND DUP2 MSTORE PUSH1 0x20 ADD PUSH1 0x1 DUP3 ADD PUSH1 0x0 SWAP1 SLOAD SWAP1 PUSH2 0x100 EXP SWAP1 DIV PUSH20 0xFFFFFFFFFFFFFFFFFFFFFFFFFFFFFFFFFFFFFFFF AND PUSH20 0xFFFFFFFFFFFFFFFFFFFFFFFFFFFFFFFFFFFFFFFF AND PUSH20 0xFFFFFFFFFFFFFFFFFFFFFFFFFFFFFFFFFFFFFFFF AND DUP2 MSTORE PUSH1 0x20 ADD PUSH1 0x1 DUP3 ADD PUSH1 0x14 SWAP1 SLOAD SWAP1 PUSH2 0x100 EXP SWAP1 DIV PUSH12 0xFFFFFFFFFFFFFFFFFFFFFFFF AND PUSH12 0xFFFFFFFFFFFFFFFFFFFFFFFF AND PUSH12 0xFFFFFFFFFFFFFFFFFFFFFFFF AND DUP2 MSTORE PUSH1 0x20 ADD PUSH1 0x2 DUP3 ADD PUSH1 0x0 SWAP1 SLOAD SWAP1 PUSH2 0x100 EXP SWAP1 DIV PUSH12 0xFFFFFFFFFFFFFFFFFFFFFFFF AND PUSH12 0xFFFFFFFFFFFFFFFFFFFFFFFF AND PUSH12 0xFFFFFFFFFFFFFFFFFFFFFFFF AND DUP2 MSTORE PUSH1 0x20 ADD PUSH1 0x2 DUP3 ADD PUSH1 0xC SWAP1 SLOAD SWAP1 PUSH2 0x100 EXP SWAP1 DIV PUSH12 0xFFFFFFFFFFFFFFFFFFFFFFFF AND PUSH12 0xFFFFFFFFFFFFFFFFFFFFFFFF AND PUSH12 0xFFFFFFFFFFFFFFFFFFFFFFFF AND DUP2 MSTORE PUSH1 0x20 ADD PUSH1 0x3 DUP3 ADD PUSH1 0x0 SWAP1 SLOAD SWAP1 PUSH2 0x100 EXP SWAP1 DIV PUSH12 0xFFFFFFFFFFFFFFFFFFFFFFFF AND PUSH12 0xFFFFFFFFFFFFFFFFFFFFFFFF AND PUSH12 0xFFFFFFFFFFFFFFFFFFFFFFFF AND DUP2 MSTORE PUSH1 0x20 ADD PUSH1 0x4 DUP3 ADD DUP1 SLOAD PUSH2 0xE8F SWAP1 PUSH2 0x2C11 JUMP JUMPDEST DUP1 PUSH1 0x1F ADD PUSH1 0x20 DUP1 SWAP2 DIV MUL PUSH1 0x20 ADD PUSH1 0x40 MLOAD SWAP1 DUP2 ADD PUSH1 0x40 MSTORE DUP1 SWAP3 SWAP2 SWAP1 DUP2 DUP2 MSTORE PUSH1 0x20 ADD DUP3 DUP1 SLOAD PUSH2 0xEBB SWAP1 PUSH2 0x2C11 JUMP JUMPDEST DUP1 ISZERO PUSH2 0xF08 JUMPI DUP1 PUSH1 0x1F LT PUSH2 0xEDD JUMPI PUSH2 0x100 DUP1 DUP4 SLOAD DIV MUL DUP4 MSTORE SWAP2 PUSH1 0x20 ADD SWAP2 PUSH2 0xF08 JUMP JUMPDEST DUP3 ADD SWAP2 SWAP1 PUSH1 0x0 MSTORE PUSH1 0x20 PUSH1 0x0 KECCAK256 SWAP1 JUMPDEST DUP2 SLOAD DUP2 MSTORE SWAP1 PUSH1 0x1 ADD SWAP1 PUSH1 0x20 ADD DUP1 DUP4 GT PUSH2 0xEEB JUMPI DUP3 SWAP1 SUB PUSH1 0x1F AND DUP3 ADD SWAP2 JUMPDEST POP POP POP POP POP DUP2 MSTORE PUSH1 0x20 ADD PUSH1 0x5 DUP3 ADD PUSH1 0x0 SWAP1 SLOAD SWAP1 PUSH2 0x100 EXP SWAP1 DIV PUSH1 0xFF AND PUSH1 0x3 DUP2 GT ISZERO PUSH2 0xF5C JUMPI PUSH32 0x4E487B7100000000000000000000000000000000000000000000000000000000 PUSH1 0x0 MSTORE PUSH1 0x21 PUSH1 0x4 MSTORE PUSH1 0x24 PUSH1 0x0 REVERT JUMPDEST PUSH1 0x3 DUP2 GT ISZERO PUSH2 0xF94 JUMPI PUSH32 0x4E487B7100000000000000000000000000000000000000000000000000000000 PUSH1 0x0 MSTORE PUSH1 0x21 PUSH1 0x4 MSTORE PUSH1 0x24 PUSH1 0x0 REVERT JUMPDEST DUP2 MSTORE PUSH1 0x20 ADD PUSH1 0x5 DUP3 ADD PUSH1 0x1 SWAP1 SLOAD SWAP1 PUSH2 0x100 EXP SWAP1 DIV PUSH2 0xFFFF AND PUSH2 0xFFFF AND PUSH2 0xFFFF AND DUP2 MSTORE POP POP SWAP1 POP SWAP2 SWAP1 POP JUMP JUMPDEST PUSH1 0x1 PUSH1 0x0 SWAP1 SLOAD SWAP1 PUSH2 0x100 EXP SWAP1 DIV PUSH20 0xFFFFFFFFFFFFFFFFFFFFFFFFFFFFFFFFFFFFFFFF AND PUSH20 0xFFFFFFFFFFFFFFFFFFFFFFFFFFFFFFFFFFFFFFFF AND CALLER PUSH20 0xFFFFFFFFFFFFFFFFFFFFFFFFFFFFFFFFFFFFFFFF AND EQ PUSH2 0x104F JUMPI PUSH1 0x40 MLOAD PUSH32 0x8C379A000000000000000000000000000000000000000000000000000000000 DUP2 MSTORE PUSH1 0x4 ADD PUSH2 0x1046 SWAP1 PUSH2 0x2908 JUMP JUMPDEST PUSH1 0x40 MLOAD DUP1 SWAP2 SUB SWAP1 REVERT JUMPDEST PUSH1 0x0 PUSH1 0x3 DUP3 PUSH1 0x40 MLOAD PUSH2 0x1061 SWAP2 SWAP1 PUSH2 0x26DC JUMP JUMPDEST SWAP1 DUP2 MSTORE PUSH1 0x20 ADD PUSH1 0x40 MLOAD DUP1 SWAP2 SUB SWAP1 KECCAK256 PUSH1 0x40 MLOAD DUP1 PUSH2 0x120 ADD PUSH1 0x40 MSTORE SWAP1 DUP2 PUSH1 0x0 DUP3 ADD PUSH1 0x0 SWAP1 SLOAD SWAP1 PUSH2 0x100 EXP SWAP1 DIV PUSH20 0xFFFFFFFFFFFFFFFFFFFFFFFFFFFFFFFFFFFFFFFF AND PUSH20 0xFFFFFFFFFFFFFFFFFFFFFFFFFFFFFFFFFFFFFFFF AND PUSH20 0xFFFFFFFFFFFFFFFFFFFFFFFFFFFFFFFFFFFFFFFF AND DUP2 MSTORE PUSH1 0x20 ADD PUSH1 0x1 DUP3 ADD PUSH1 0x0 SWAP1 SLOAD SWAP1 PUSH2 0x100 EXP SWAP1 DIV PUSH20 0xFFFFFFFFFFFFFFFFFFFFFFFFFFFFFFFFFFFFFFFF AND PUSH20 0xFFFFFFFFFFFFFFFFFFFFFFFFFFFFFFFFFFFFFFFF AND PUSH20 0xFFFFFFFFFFFFFFFFFFFFFFFFFFFFFFFFFFFFFFFF AND DUP2 MSTORE PUSH1 0x20 ADD PUSH1 0x1 DUP3 ADD PUSH1 0x14 SWAP1 SLOAD SWAP1 PUSH2 0x100 EXP SWAP1 DIV PUSH12 0xFFFFFFFFFFFFFFFFFFFFFFFF AND PUSH12 0xFFFFFFFFFFFFFFFFFFFFFFFF AND PUSH12 0xFFFFFFFFFFFFFFFFFFFFFFFF AND DUP2 MSTORE PUSH1 0x20 ADD PUSH1 0x2 DUP3 ADD PUSH1 0x0 SWAP1 SLOAD SWAP1 PUSH2 0x100 EXP SWAP1 DIV PUSH12 0xFFFFFFFFFFFFFFFFFFFFFFFF AND PUSH12 0xFFFFFFFFFFFFFFFFFFFFFFFF AND PUSH12 0xFFFFFFFFFFFFFFFFFFFFFFFF AND DUP2 MSTORE PUSH1 0x20 ADD PUSH1 0x2 DUP3 ADD PUSH1 0xC SWAP1 SLOAD SWAP1 PUSH2 0x100 EXP SWAP1 DIV PUSH12 0xFFFFFFFFFFFFFFFFFFFFFFFF AND PUSH12 0xFFFFFFFFFFFFFFFFFFFFFFFF AND PUSH12 0xFFFFFFFFFFFFFFFFFFFFFFFF AND DUP2 MSTORE PUSH1 0x20 ADD PUSH1 0x3 DUP3 ADD PUSH1 0x0 SWAP1 SLOAD SWAP1 PUSH2 0x100 EXP SWAP1 DIV PUSH12 0xFFFFFFFFFFFFFFFFFFFFFFFF AND PUSH12 0xFFFFFFFFFFFFFFFFFFFFFFFF AND PUSH12 0xFFFFFFFFFFFFFFFFFFFFFFFF AND DUP2 MSTORE PUSH1 0x20 ADD PUSH1 0x4 DUP3 ADD DUP1 SLOAD PUSH2 0x122F SWAP1 PUSH2 0x2C11 JUMP JUMPDEST DUP1 PUSH1 0x1F ADD PUSH1 0x20 DUP1 SWAP2 DIV MUL PUSH1 0x20 ADD PUSH1 0x40 MLOAD SWAP1 DUP2 ADD PUSH1 0x40 MSTORE DUP1 SWAP3 SWAP2 SWAP1 DUP2 DUP2 MSTORE PUSH1 0x20 ADD DUP3 DUP1 SLOAD PUSH2 0x125B SWAP1 PUSH2 0x2C11 JUMP JUMPDEST DUP1 ISZERO PUSH2 0x12A8 JUMPI DUP1 PUSH1 0x1F LT PUSH2 0x127D JUMPI PUSH2 0x100 DUP1 DUP4 SLOAD DIV MUL DUP4 MSTORE SWAP2 PUSH1 0x20 ADD SWAP2 PUSH2 0x12A8 JUMP JUMPDEST DUP3 ADD SWAP2 SWAP1 PUSH1 0x0 MSTORE PUSH1 0x20 PUSH1 0x0 KECCAK256 SWAP1 JUMPDEST DUP2 SLOAD DUP2 MSTORE SWAP1 PUSH1 0x1 ADD SWAP1 PUSH1 0x20 ADD DUP1 DUP4 GT PUSH2 0x128B JUMPI DUP3 SWAP1 SUB PUSH1 0x1F AND DUP3 ADD SWAP2 JUMPDEST POP POP POP POP POP DUP2 MSTORE PUSH1 0x20 ADD PUSH1 0x5 DUP3 ADD PUSH1 0x0 SWAP1 SLOAD SWAP1 PUSH2 0x100 EXP SWAP1 DIV PUSH1 0xFF AND PUSH1 0x3 DUP2 GT ISZERO PUSH2 0x12FC JUMPI PUSH32 0x4E487B7100000000000000000000000000000000000000000000000000000000 PUSH1 0x0 MSTORE PUSH1 0x21 PUSH1 0x4 MSTORE PUSH1 0x24 PUSH1 0x0 REVERT JUMPDEST PUSH1 0x3 DUP2 GT ISZERO PUSH2 0x1334 JUMPI PUSH32 0x4E487B7100000000000000000000000000000000000000000000000000000000 PUSH1 0x0 MSTORE PUSH1 0x21 PUSH1 0x4 MSTORE PUSH1 0x24 PUSH1 0x0 REVERT JUMPDEST DUP2 MSTORE PUSH1 0x20 ADD PUSH1 0x5 DUP3 ADD PUSH1 0x1 SWAP1 SLOAD SWAP1 PUSH2 0x100 EXP SWAP1 DIV PUSH2 0xFFFF AND PUSH2 0xFFFF AND PUSH2 0xFFFF AND DUP2 MSTORE POP POP SWAP1 POP PUSH1 0x3 DUP2 PUSH1 0xE0 ADD SWAP1 PUSH1 0x3 DUP2 GT ISZERO PUSH2 0x1399 JUMPI PUSH32 0x4E487B7100000000000000000000000000000000000000000000000000000000 PUSH1 0x0 MSTORE PUSH1 0x21 PUSH1 0x4 MSTORE PUSH1 0x24 PUSH1 0x0 REVERT JUMPDEST SWAP1 DUP2 PUSH1 0x3 DUP2 GT ISZERO PUSH2 0x13D3 JUMPI PUSH32 0x4E487B7100000000000000000000000000000000000000000000000000000000 PUSH1 0x0 MSTORE PUSH1 0x21 PUSH1 0x4 MSTORE PUSH1 0x24 PUSH1 0x0 REVERT JUMPDEST DUP2 MSTORE POP POP PUSH32 0x72550304B060B84FB1965B7602034759F65A574B89BE2930BABF4FC5356ABE96 DUP3 DUP3 PUSH1 0xE0 ADD MLOAD PUSH1 0x40 MLOAD PUSH2 0x140C SWAP3 SWAP2 SWAP1 PUSH2 0x2898 JUMP JUMPDEST PUSH1 0x40 MLOAD DUP1 SWAP2 SUB SWAP1 LOG1 POP POP JUMP JUMPDEST PUSH1 0x1 PUSH1 0x0 SWAP1 SLOAD SWAP1 PUSH2 0x100 EXP SWAP1 DIV PUSH20 0xFFFFFFFFFFFFFFFFFFFFFFFFFFFFFFFFFFFFFFFF AND DUP2 JUMP JUMPDEST PUSH1 0x40 MLOAD DUP1 PUSH2 0x120 ADD PUSH1 0x40 MSTORE DUP1 DUP6 PUSH20 0xFFFFFFFFFFFFFFFFFFFFFFFFFFFFFFFFFFFFFFFF AND DUP2 MSTORE PUSH1 0x20 ADD DUP7 PUSH20 0xFFFFFFFFFFFFFFFFFFFFFFFFFFFFFFFFFFFFFFFF AND DUP2 MSTORE PUSH1 0x20 ADD DUP5 PUSH12 0xFFFFFFFFFFFFFFFFFFFFFFFF AND DUP2 MSTORE PUSH1 0x20 ADD PUSH1 0x0 PUSH12 0xFFFFFFFFFFFFFFFFFFFFFFFF AND DUP2 MSTORE PUSH1 0x20 ADD DUP4 PUSH12 0xFFFFFFFFFFFFFFFFFFFFFFFF AND DUP2 MSTORE PUSH1 0x20 ADD PUSH1 0x0 PUSH12 0xFFFFFFFFFFFFFFFFFFFFFFFF AND DUP2 MSTORE PUSH1 0x20 ADD DUP3 DUP2 MSTORE PUSH1 0x20 ADD PUSH1 0x0 PUSH1 0x3 DUP2 GT ISZERO PUSH2 0x1514 JUMPI PUSH32 0x4E487B7100000000000000000000000000000000000000000000000000000000 PUSH1 0x0 MSTORE PUSH1 0x21 PUSH1 0x4 MSTORE PUSH1 0x24 PUSH1 0x0 REVERT JUMPDEST DUP2 MSTORE PUSH1 0x20 ADD PUSH1 0x0 PUSH2 0xFFFF AND DUP2 MSTORE POP PUSH1 0x3 DUP3 PUSH1 0x40 MLOAD PUSH2 0x1532 SWAP2 SWAP1 PUSH2 0x26DC JUMP JUMPDEST SWAP1 DUP2 MSTORE PUSH1 0x20 ADD PUSH1 0x40 MLOAD DUP1 SWAP2 SUB SWAP1 KECCAK256 PUSH1 0x0 DUP3 ADD MLOAD DUP2 PUSH1 0x0 ADD PUSH1 0x0 PUSH2 0x100 EXP DUP2 SLOAD DUP2 PUSH20 0xFFFFFFFFFFFFFFFFFFFFFFFFFFFFFFFFFFFFFFFF MUL NOT AND SWAP1 DUP4 PUSH20 0xFFFFFFFFFFFFFFFFFFFFFFFFFFFFFFFFFFFFFFFF AND MUL OR SWAP1 SSTORE POP PUSH1 0x20 DUP3 ADD MLOAD DUP2 PUSH1 0x1 ADD PUSH1 0x0 PUSH2 0x100 EXP DUP2 SLOAD DUP2 PUSH20 0xFFFFFFFFFFFFFFFFFFFFFFFFFFFFFFFFFFFFFFFF MUL NOT AND SWAP1 DUP4 PUSH20 0xFFFFFFFFFFFFFFFFFFFFFFFFFFFFFFFFFFFFFFFF AND MUL OR SWAP1 SSTORE POP PUSH1 0x40 DUP3 ADD MLOAD DUP2 PUSH1 0x1 ADD PUSH1 0x14 PUSH2 0x100 EXP DUP2 SLOAD DUP2 PUSH12 0xFFFFFFFFFFFFFFFFFFFFFFFF MUL NOT AND SWAP1 DUP4 PUSH12 0xFFFFFFFFFFFFFFFFFFFFFFFF AND MUL OR SWAP1 SSTORE POP PUSH1 0x60 DUP3 ADD MLOAD DUP2 PUSH1 0x2 ADD PUSH1 0x0 PUSH2 0x100 EXP DUP2 SLOAD DUP2 PUSH12 0xFFFFFFFFFFFFFFFFFFFFFFFF MUL NOT AND SWAP1 DUP4 PUSH12 0xFFFFFFFFFFFFFFFFFFFFFFFF AND MUL OR SWAP1 SSTORE POP PUSH1 0x80 DUP3 ADD MLOAD DUP2 PUSH1 0x2 ADD PUSH1 0xC PUSH2 0x100 EXP DUP2 SLOAD DUP2 PUSH12 0xFFFFFFFFFFFFFFFFFFFFFFFF MUL NOT AND SWAP1 DUP4 PUSH12 0xFFFFFFFFFFFFFFFFFFFFFFFF AND MUL OR SWAP1 SSTORE POP PUSH1 0xA0 DUP3 ADD MLOAD DUP2 PUSH1 0x3 ADD PUSH1 0x0 PUSH2 0x100 EXP DUP2 SLOAD DUP2 PUSH12 0xFFFFFFFFFFFFFFFFFFFFFFFF MUL NOT AND SWAP1 DUP4 PUSH12 0xFFFFFFFFFFFFFFFFFFFFFFFF AND MUL OR SWAP1 SSTORE POP PUSH1 0xC0 DUP3 ADD MLOAD DUP2 PUSH1 0x4 ADD SWAP1 DUP1 MLOAD SWAP1 PUSH1 0x20 ADD SWAP1 PUSH2 0x16C6 SWAP3 SWAP2 SWAP1 PUSH2 0x1F9C JUMP JUMPDEST POP PUSH1 0xE0 DUP3 ADD MLOAD DUP2 PUSH1 0x5 ADD PUSH1 0x0 PUSH2 0x100 EXP DUP2 SLOAD DUP2 PUSH1 0xFF MUL NOT AND SWAP1 DUP4 PUSH1 0x3 DUP2 GT ISZERO PUSH2 0x1718 JUMPI PUSH32 0x4E487B7100000000000000000000000000000000000000000000000000000000 PUSH1 0x0 MSTORE PUSH1 0x21 PUSH1 0x4 MSTORE PUSH1 0x24 PUSH1 0x0 REVERT JUMPDEST MUL OR SWAP1 SSTORE POP PUSH2 0x100 DUP3 ADD MLOAD DUP2 PUSH1 0x5 ADD PUSH1 0x1 PUSH2 0x100 EXP DUP2 SLOAD DUP2 PUSH2 0xFFFF MUL NOT AND SWAP1 DUP4 PUSH2 0xFFFF AND MUL OR SWAP1 SSTORE POP SWAP1 POP POP PUSH32 0xBF264907BECBE9032224E5C73B8F9C259D9925C669D303003745B47838067822 DUP2 DUP6 DUP6 DUP6 PUSH1 0x40 MLOAD PUSH2 0x1779 SWAP5 SWAP4 SWAP3 SWAP2 SWAP1 PUSH2 0x284C JUMP JUMPDEST PUSH1 0x40 MLOAD DUP1 SWAP2 SUB SWAP1 LOG1 POP POP POP POP POP JUMP JUMPDEST PUSH1 0x40 MLOAD DUP1 PUSH1 0x40 ADD PUSH1 0x40 MSTORE DUP1 PUSH1 0xD DUP2 MSTORE PUSH1 0x20 ADD PUSH32 0x4752414E5453204D6F64756C6500000000000000000000000000000000000000 DUP2 MSTORE POP DUP2 JUMP JUMPDEST PUSH32 0xE3B859ADDF4FF702DB3C81F356A5115754A64F22DD16B6175F26B4B444AAC1EC DUP2 JUMP JUMPDEST PUSH1 0x1 PUSH1 0x0 SWAP1 SLOAD SWAP1 PUSH2 0x100 EXP SWAP1 DIV PUSH20 0xFFFFFFFFFFFFFFFFFFFFFFFFFFFFFFFFFFFFFFFF AND PUSH20 0xFFFFFFFFFFFFFFFFFFFFFFFFFFFFFFFFFFFFFFFF AND CALLER PUSH20 0xFFFFFFFFFFFFFFFFFFFFFFFFFFFFFFFFFFFFFFFF AND EQ PUSH2 0x1875 JUMPI PUSH1 0x40 MLOAD PUSH32 0x8C379A000000000000000000000000000000000000000000000000000000000 DUP2 MSTORE PUSH1 0x4 ADD PUSH2 0x186C SWAP1 PUSH2 0x2908 JUMP JUMPDEST PUSH1 0x40 MLOAD DUP1 SWAP2 SUB SWAP1 REVERT JUMPDEST PUSH1 0x0 JUMPDEST DUP2 MLOAD DUP2 LT ISZERO PUSH2 0x192C JUMPI PUSH1 0x1 PUSH1 0x4 PUSH1 0x0 DUP5 DUP5 DUP2 MLOAD DUP2 LT PUSH2 0x18C0 JUMPI PUSH32 0x4E487B7100000000000000000000000000000000000000000000000000000000 PUSH1 0x0 MSTORE PUSH1 0x32 PUSH1 0x4 MSTORE PUSH1 0x24 PUSH1 0x0 REVERT JUMPDEST PUSH1 0x20 MUL PUSH1 0x20 ADD ADD MLOAD PUSH20 0xFFFFFFFFFFFFFFFFFFFFFFFFFFFFFFFFFFFFFFFF AND PUSH20 0xFFFFFFFFFFFFFFFFFFFFFFFFFFFFFFFFFFFFFFFF AND DUP2 MSTORE PUSH1 0x20 ADD SWAP1 DUP2 MSTORE PUSH1 0x20 ADD PUSH1 0x0 KECCAK256 PUSH1 0x0 PUSH2 0x100 EXP DUP2 SLOAD DUP2 PUSH1 0xFF MUL NOT AND SWAP1 DUP4 ISZERO ISZERO MUL OR SWAP1 SSTORE POP DUP1 DUP1 PUSH2 0x1924 SWAP1 PUSH2 0x2C43 JUMP JUMPDEST SWAP2 POP POP PUSH2 0x1878 JUMP JUMPDEST POP POP JUMP JUMPDEST PUSH1 0x0 DUP1 SLOAD SWAP1 PUSH2 0x100 EXP SWAP1 DIV PUSH20 0xFFFFFFFFFFFFFFFFFFFFFFFFFFFFFFFFFFFFFFFF AND DUP2 JUMP JUMPDEST PUSH1 0x40 MLOAD DUP1 PUSH1 0x40 ADD PUSH1 0x40 MSTORE DUP1 PUSH1 0x5 DUP2 MSTORE PUSH1 0x20 ADD PUSH32 0x302E312E30000000000000000000000000000000000000000000000000000000 DUP2 MSTORE POP DUP2 JUMP JUMPDEST PUSH1 0x0 PUSH1 0x3 DUP3 PUSH1 0x40 MLOAD PUSH2 0x199F SWAP2 SWAP1 PUSH2 0x26DC JUMP JUMPDEST SWAP1 DUP2 MSTORE PUSH1 0x20 ADD PUSH1 0x40 MLOAD DUP1 SWAP2 SUB SWAP1 KECCAK256 PUSH1 0x40 MLOAD DUP1 PUSH2 0x120 ADD PUSH1 0x40 MSTORE SWAP1 DUP2 PUSH1 0x0 DUP3 ADD PUSH1 0x0 SWAP1 SLOAD SWAP1 PUSH2 0x100 EXP SWAP1 DIV PUSH20 0xFFFFFFFFFFFFFFFFFFFFFFFFFFFFFFFFFFFFFFFF AND PUSH20 0xFFFFFFFFFFFFFFFFFFFFFFFFFFFFFFFFFFFFFFFF AND PUSH20 0xFFFFFFFFFFFFFFFFFFFFFFFFFFFFFFFFFFFFFFFF AND DUP2 MSTORE PUSH1 0x20 ADD PUSH1 0x1 DUP3 ADD PUSH1 0x0 SWAP1 SLOAD SWAP1 PUSH2 0x100 EXP SWAP1 DIV PUSH20 0xFFFFFFFFFFFFFFFFFFFFFFFFFFFFFFFFFFFFFFFF AND PUSH20 0xFFFFFFFFFFFFFFFFFFFFFFFFFFFFFFFFFFFFFFFF AND PUSH20 0xFFFFFFFFFFFFFFFFFFFFFFFFFFFFFFFFFFFFFFFF AND DUP2 MSTORE PUSH1 0x20 ADD PUSH1 0x1 DUP3 ADD PUSH1 0x14 SWAP1 SLOAD SWAP1 PUSH2 0x100 EXP SWAP1 DIV PUSH12 0xFFFFFFFFFFFFFFFFFFFFFFFF AND PUSH12 0xFFFFFFFFFFFFFFFFFFFFFFFF AND PUSH12 0xFFFFFFFFFFFFFFFFFFFFFFFF AND DUP2 MSTORE PUSH1 0x20 ADD PUSH1 0x2 DUP3 ADD PUSH1 0x0 SWAP1 SLOAD SWAP1 PUSH2 0x100 EXP SWAP1 DIV PUSH12 0xFFFFFFFFFFFFFFFFFFFFFFFF AND PUSH12 0xFFFFFFFFFFFFFFFFFFFFFFFF AND PUSH12 0xFFFFFFFFFFFFFFFFFFFFFFFF AND DUP2 MSTORE PUSH1 0x20 ADD PUSH1 0x2 DUP3 ADD PUSH1 0xC SWAP1 SLOAD SWAP1 PUSH2 0x100 EXP SWAP1 DIV PUSH12 0xFFFFFFFFFFFFFFFFFFFFFFFF AND PUSH12 0xFFFFFFFFFFFFFFFFFFFFFFFF AND PUSH12 0xFFFFFFFFFFFFFFFFFFFFFFFF AND DUP2 MSTORE PUSH1 0x20 ADD PUSH1 0x3 DUP3 ADD PUSH1 0x0 SWAP1 SLOAD SWAP1 PUSH2 0x100 EXP SWAP1 DIV PUSH12 0xFFFFFFFFFFFFFFFFFFFFFFFF AND PUSH12 0xFFFFFFFFFFFFFFFFFFFFFFFF AND PUSH12 0xFFFFFFFFFFFFFFFFFFFFFFFF AND DUP2 MSTORE PUSH1 0x20 ADD PUSH1 0x4 DUP3 ADD DUP1 SLOAD PUSH2 0x1B6D SWAP1 PUSH2 0x2C11 JUMP JUMPDEST DUP1 PUSH1 0x1F ADD PUSH1 0x20 DUP1 SWAP2 DIV MUL PUSH1 0x20 ADD PUSH1 0x40 MLOAD SWAP1 DUP2 ADD PUSH1 0x40 MSTORE DUP1 SWAP3 SWAP2 SWAP1 DUP2 DUP2 MSTORE PUSH1 0x20 ADD DUP3 DUP1 SLOAD PUSH2 0x1B99 SWAP1 PUSH2 0x2C11 JUMP JUMPDEST DUP1 ISZERO PUSH2 0x1BE6 JUMPI DUP1 PUSH1 0x1F LT PUSH2 0x1BBB JUMPI PUSH2 0x100 DUP1 DUP4 SLOAD DIV MUL DUP4 MSTORE SWAP2 PUSH1 0x20 ADD SWAP2 PUSH2 0x1BE6 JUMP JUMPDEST DUP3 ADD SWAP2 SWAP1 PUSH1 0x0 MSTORE PUSH1 0x20 PUSH1 0x0 KECCAK256 SWAP1 JUMPDEST DUP2 SLOAD DUP2 MSTORE SWAP1 PUSH1 0x1 ADD SWAP1 PUSH1 0x20 ADD DUP1 DUP4 GT PUSH2 0x1BC9 JUMPI DUP3 SWAP1 SUB PUSH1 0x1F AND DUP3 ADD SWAP2 JUMPDEST POP POP POP POP POP DUP2 MSTORE PUSH1 0x20 ADD PUSH1 0x5 DUP3 ADD PUSH1 0x0 SWAP1 SLOAD SWAP1 PUSH2 0x100 EXP SWAP1 DIV PUSH1 0xFF AND PUSH1 0x3 DUP2 GT ISZERO PUSH2 0x1C3A JUMPI PUSH32 0x4E487B7100000000000000000000000000000000000000000000000000000000 PUSH1 0x0 MSTORE PUSH1 0x21 PUSH1 0x4 MSTORE PUSH1 0x24 PUSH1 0x0 REVERT JUMPDEST PUSH1 0x3 DUP2 GT ISZERO PUSH2 0x1C72 JUMPI PUSH32 0x4E487B7100000000000000000000000000000000000000000000000000000000 PUSH1 0x0 MSTORE PUSH1 0x21 PUSH1 0x4 MSTORE PUSH1 0x24 PUSH1 0x0 REVERT JUMPDEST DUP2 MSTORE PUSH1 0x20 ADD PUSH1 0x5 DUP3 ADD PUSH1 0x1 SWAP1 SLOAD SWAP1 PUSH2 0x100 EXP SWAP1 DIV PUSH2 0xFFFF AND PUSH2 0xFFFF AND PUSH2 0xFFFF AND DUP2 MSTORE POP POP SWAP1 POP PUSH1 0x0 DUP2 PUSH1 0x80 ADD MLOAD DUP3 PUSH1 0x40 ADD MLOAD PUSH2 0x1CAE SWAP2 SWAP1 PUSH2 0x2AA9 JUMP JUMPDEST SWAP1 POP DUP2 PUSH1 0x40 ADD MLOAD PUSH12 0xFFFFFFFFFFFFFFFFFFFFFFFF AND DUP2 DUP4 PUSH1 0x60 ADD MLOAD PUSH2 0x1CD3 SWAP2 SWAP1 PUSH2 0x2A67 JUMP JUMPDEST PUSH12 0xFFFFFFFFFFFFFFFFFFFFFFFF AND GT ISZERO PUSH2 0x1D22 JUMPI PUSH1 0x40 MLOAD PUSH32 0x8C379A000000000000000000000000000000000000000000000000000000000 DUP2 MSTORE PUSH1 0x4 ADD PUSH2 0x1D19 SWAP1 PUSH2 0x28E8 JUMP JUMPDEST PUSH1 0x40 MLOAD DUP1 SWAP2 SUB SWAP1 REVERT JUMPDEST PUSH1 0x0 DUP1 SLOAD SWAP1 PUSH2 0x100 EXP SWAP1 DIV PUSH20 0xFFFFFFFFFFFFFFFFFFFFFFFFFFFFFFFFFFFFFFFF AND PUSH20 0xFFFFFFFFFFFFFFFFFFFFFFFFFFFFFFFFFFFFFFFF AND PUSH4 0x23B872DD CALLER DUP5 PUSH1 0x20 ADD MLOAD CALLVALUE PUSH1 0x40 MLOAD DUP5 PUSH4 0xFFFFFFFF AND PUSH1 0xE0 SHL DUP2 MSTORE PUSH1 0x4 ADD PUSH2 0x1D83 SWAP4 SWAP3 SWAP2 SWAP1 PUSH2 0x270E JUMP JUMPDEST PUSH1 0x20 PUSH1 0x40 MLOAD DUP1 DUP4 SUB DUP2 PUSH1 0x0 DUP8 DUP1 EXTCODESIZE ISZERO DUP1 ISZERO PUSH2 0x1D9D JUMPI PUSH1 0x0 DUP1 REVERT JUMPDEST POP GAS CALL ISZERO DUP1 ISZERO PUSH2 0x1DB1 JUMPI RETURNDATASIZE PUSH1 0x0 DUP1 RETURNDATACOPY RETURNDATASIZE PUSH1 0x0 REVERT JUMPDEST POP POP POP POP PUSH1 0x40 MLOAD RETURNDATASIZE PUSH1 0x1F NOT PUSH1 0x1F DUP3 ADD AND DUP3 ADD DUP1 PUSH1 0x40 MSTORE POP DUP2 ADD SWAP1 PUSH2 0x1DD5 SWAP2 SWAP1 PUSH2 0x2275 JUMP JUMPDEST POP PUSH1 0x1 DUP3 PUSH2 0x100 ADD MLOAD PUSH2 0x1DE8 SWAP2 SWAP1 PUSH2 0x2A2F JUMP JUMPDEST DUP3 PUSH2 0x100 ADD SWAP1 PUSH2 0xFFFF AND SWAP1 DUP2 PUSH2 0xFFFF AND DUP2 MSTORE POP POP DUP1 DUP3 PUSH1 0x60 ADD DUP2 DUP2 MLOAD PUSH2 0x1E0E SWAP2 SWAP1 PUSH2 0x2A67 JUMP JUMPDEST SWAP2 POP SWAP1 PUSH12 0xFFFFFFFFFFFFFFFFFFFFFFFF AND SWAP1 DUP2 PUSH12 0xFFFFFFFFFFFFFFFFFFFFFFFF AND DUP2 MSTORE POP POP PUSH32 0xEC7712FAAEC1442B3B1E2D3BC482892AAD111554D472DC28E9E44BB187B5658D DUP3 PUSH1 0x0 ADD MLOAD DUP4 PUSH1 0x20 ADD MLOAD DUP5 PUSH1 0x80 ADD MLOAD DUP6 PUSH1 0xA0 ADD MLOAD DUP7 PUSH1 0x40 ADD MLOAD DUP8 PUSH1 0x60 ADD MLOAD DUP9 PUSH1 0xC0 ADD MLOAD DUP10 PUSH1 0xE0 ADD MLOAD PUSH1 0x1 DUP12 PUSH2 0x100 ADD MLOAD PUSH2 0x1E8E SWAP2 SWAP1 PUSH2 0x2ADA JUMP JUMPDEST PUSH1 0x40 MLOAD PUSH2 0x1EA3 SWAP10 SWAP9 SWAP8 SWAP7 SWAP6 SWAP5 SWAP4 SWAP3 SWAP2 SWAP1 PUSH2 0x2745 JUMP JUMPDEST PUSH1 0x40 MLOAD DUP1 SWAP2 SUB SWAP1 LOG1 POP POP POP JUMP JUMPDEST PUSH1 0x40 MLOAD DUP1 PUSH2 0x120 ADD PUSH1 0x40 MSTORE DUP1 PUSH1 0x0 PUSH20 0xFFFFFFFFFFFFFFFFFFFFFFFFFFFFFFFFFFFFFFFF AND DUP2 MSTORE PUSH1 0x20 ADD PUSH1 0x0 PUSH20 0xFFFFFFFFFFFFFFFFFFFFFFFFFFFFFFFFFFFFFFFF AND DUP2 MSTORE PUSH1 0x20 ADD PUSH1 0x0 PUSH12 0xFFFFFFFFFFFFFFFFFFFFFFFF AND DUP2 MSTORE PUSH1 0x20 ADD PUSH1 0x0 PUSH12 0xFFFFFFFFFFFFFFFFFFFFFFFF AND DUP2 MSTORE PUSH1 0x20 ADD PUSH1 0x0 PUSH12 0xFFFFFFFFFFFFFFFFFFFFFFFF AND DUP2 MSTORE PUSH1 0x20 ADD PUSH1 0x0 PUSH12 0xFFFFFFFFFFFFFFFFFFFFFFFF AND DUP2 MSTORE PUSH1 0x20 ADD PUSH1 0x60 DUP2 MSTORE PUSH1 0x20 ADD PUSH1 0x0 PUSH1 0x3 DUP2 GT ISZERO PUSH2 0x1F8B JUMPI PUSH32 0x4E487B7100000000000000000000000000000000000000000000000000000000 PUSH1 0x0 MSTORE PUSH1 0x21 PUSH1 0x4 MSTORE PUSH1 0x24 PUSH1 0x0 REVERT JUMPDEST DUP2 MSTORE PUSH1 0x20 ADD PUSH1 0x0 PUSH2 0xFFFF AND DUP2 MSTORE POP SWAP1 JUMP JUMPDEST DUP3 DUP1 SLOAD PUSH2 0x1FA8 SWAP1 PUSH2 0x2C11 JUMP JUMPDEST SWAP1 PUSH1 0x0 MSTORE PUSH1 0x20 PUSH1 0x0 KECCAK256 SWAP1 PUSH1 0x1F ADD PUSH1 0x20 SWAP1 DIV DUP2 ADD SWAP3 DUP3 PUSH2 0x1FCA JUMPI PUSH1 0x0 DUP6 SSTORE PUSH2 0x2011 JUMP JUMPDEST DUP3 PUSH1 0x1F LT PUSH2 0x1FE3 JUMPI DUP1 MLOAD PUSH1 0xFF NOT AND DUP4 DUP1 ADD OR DUP6 SSTORE PUSH2 0x2011 JUMP JUMPDEST DUP3 DUP1 ADD PUSH1 0x1 ADD DUP6 SSTORE DUP3 ISZERO PUSH2 0x2011 JUMPI SWAP2 DUP3 ADD JUMPDEST DUP3 DUP2 GT ISZERO PUSH2 0x2010 JUMPI DUP3 MLOAD DUP3 SSTORE SWAP2 PUSH1 0x20 ADD SWAP2 SWAP1 PUSH1 0x1 ADD SWAP1 PUSH2 0x1FF5 JUMP JUMPDEST JUMPDEST POP SWAP1 POP PUSH2 0x201E SWAP2 SWAP1 PUSH2 0x2022 JUMP JUMPDEST POP SWAP1 JUMP JUMPDEST JUMPDEST DUP1 DUP3 GT ISZERO PUSH2 0x203B JUMPI PUSH1 0x0 DUP2 PUSH1 0x0 SWAP1 SSTORE POP PUSH1 0x1 ADD PUSH2 0x2023 JUMP JUMPDEST POP SWAP1 JUMP JUMPDEST PUSH1 0x0 PUSH2 0x2052 PUSH2 0x204D DUP5 PUSH2 0x299B JUMP JUMPDEST PUSH2 0x296A JUMP JUMPDEST SWAP1 POP DUP1 DUP4 DUP3 MSTORE PUSH1 0x20 DUP3 ADD SWAP1 POP DUP3 DUP6 PUSH1 0x20 DUP7 MUL DUP3 ADD GT ISZERO PUSH2 0x2071 JUMPI PUSH1 0x0 DUP1 REVERT JUMPDEST PUSH1 0x0 JUMPDEST DUP6 DUP2 LT ISZERO PUSH2 0x20A1 JUMPI DUP2 PUSH2 0x2087 DUP9 DUP3 PUSH2 0x20E9 JUMP JUMPDEST DUP5 MSTORE PUSH1 0x20 DUP5 ADD SWAP4 POP PUSH1 0x20 DUP4 ADD SWAP3 POP POP PUSH1 0x1 DUP2 ADD SWAP1 POP PUSH2 0x2074 JUMP JUMPDEST POP POP POP SWAP4 SWAP3 POP POP POP JUMP JUMPDEST PUSH1 0x0 PUSH2 0x20BE PUSH2 0x20B9 DUP5 PUSH2 0x29C7 JUMP JUMPDEST PUSH2 0x296A JUMP JUMPDEST SWAP1 POP DUP3 DUP2 MSTORE PUSH1 0x20 DUP2 ADD DUP5 DUP5 DUP5 ADD GT ISZERO PUSH2 0x20D6 JUMPI PUSH1 0x0 DUP1 REVERT JUMPDEST PUSH2 0x20E1 DUP5 DUP3 DUP6 PUSH2 0x2BCF JUMP JUMPDEST POP SWAP4 SWAP3 POP POP POP JUMP JUMPDEST PUSH1 0x0 DUP2 CALLDATALOAD SWAP1 POP PUSH2 0x20F8 DUP2 PUSH2 0x2D9C JUMP JUMPDEST SWAP3 SWAP2 POP POP JUMP JUMPDEST PUSH1 0x0 DUP3 PUSH1 0x1F DUP4 ADD SLT PUSH2 0x210F JUMPI PUSH1 0x0 DUP1 REVERT JUMPDEST DUP2 CALLDATALOAD PUSH2 0x211F DUP5 DUP3 PUSH1 0x20 DUP7 ADD PUSH2 0x203F JUMP JUMPDEST SWAP2 POP POP SWAP3 SWAP2 POP POP JUMP JUMPDEST PUSH1 0x0 DUP2 MLOAD SWAP1 POP PUSH2 0x2137 DUP2 PUSH2 0x2DB3 JUMP JUMPDEST SWAP3 SWAP2 POP POP JUMP JUMPDEST PUSH1 0x0 DUP3 PUSH1 0x1F DUP4 ADD SLT PUSH2 0x214E JUMPI PUSH1 0x0 DUP1 REVERT JUMPDEST DUP2 CALLDATALOAD PUSH2 0x215E DUP5 DUP3 PUSH1 0x20 DUP7 ADD PUSH2 0x20AB JUMP JUMPDEST SWAP2 POP POP SWAP3 SWAP2 POP POP JUMP JUMPDEST PUSH1 0x0 DUP2 CALLDATALOAD SWAP1 POP PUSH2 0x2176 DUP2 PUSH2 0x2DCA JUMP JUMPDEST SWAP3 SWAP2 POP POP JUMP JUMPDEST PUSH1 0x0 PUSH1 0x20 DUP3 DUP5 SUB SLT ISZERO PUSH2 0x218E JUMPI PUSH1 0x0 DUP1 REVERT JUMPDEST PUSH1 0x0 PUSH2 0x219C DUP5 DUP3 DUP6 ADD PUSH2 0x20E9 JUMP JUMPDEST SWAP2 POP POP SWAP3 SWAP2 POP POP JUMP JUMPDEST PUSH1 0x0 DUP1 PUSH1 0x0 DUP1 PUSH1 0x0 PUSH1 0xA0 DUP7 DUP9 SUB SLT ISZERO PUSH2 0x21BD JUMPI PUSH1 0x0 DUP1 REVERT JUMPDEST PUSH1 0x0 PUSH2 0x21CB DUP9 DUP3 DUP10 ADD PUSH2 0x20E9 JUMP JUMPDEST SWAP6 POP POP PUSH1 0x20 PUSH2 0x21DC DUP9 DUP3 DUP10 ADD PUSH2 0x20E9 JUMP JUMPDEST SWAP5 POP POP PUSH1 0x40 PUSH2 0x21ED DUP9 DUP3 DUP10 ADD PUSH2 0x2167 JUMP JUMPDEST SWAP4 POP POP PUSH1 0x60 PUSH2 0x21FE DUP9 DUP3 DUP10 ADD PUSH2 0x2167 JUMP JUMPDEST SWAP3 POP POP PUSH1 0x80 DUP7 ADD CALLDATALOAD PUSH8 0xFFFFFFFFFFFFFFFF DUP2 GT ISZERO PUSH2 0x221B JUMPI PUSH1 0x0 DUP1 REVERT JUMPDEST PUSH2 0x2227 DUP9 DUP3 DUP10 ADD PUSH2 0x213D JUMP JUMPDEST SWAP2 POP POP SWAP3 SWAP6 POP SWAP3 SWAP6 SWAP1 SWAP4 POP JUMP JUMPDEST PUSH1 0x0 PUSH1 0x20 DUP3 DUP5 SUB SLT ISZERO PUSH2 0x2246 JUMPI PUSH1 0x0 DUP1 REVERT JUMPDEST PUSH1 0x0 DUP3 ADD CALLDATALOAD PUSH8 0xFFFFFFFFFFFFFFFF DUP2 GT ISZERO PUSH2 0x2260 JUMPI PUSH1 0x0 DUP1 REVERT JUMPDEST PUSH2 0x226C DUP5 DUP3 DUP6 ADD PUSH2 0x20FE JUMP JUMPDEST SWAP2 POP POP SWAP3 SWAP2 POP POP JUMP JUMPDEST PUSH1 0x0 PUSH1 0x20 DUP3 DUP5 SUB SLT ISZERO PUSH2 0x2287 JUMPI PUSH1 0x0 DUP1 REVERT JUMPDEST PUSH1 0x0 PUSH2 0x2295 DUP5 DUP3 DUP6 ADD PUSH2 0x2128 JUMP JUMPDEST SWAP2 POP POP SWAP3 SWAP2 POP POP JUMP JUMPDEST PUSH1 0x0 PUSH1 0x20 DUP3 DUP5 SUB SLT ISZERO PUSH2 0x22B0 JUMPI PUSH1 0x0 DUP1 REVERT JUMPDEST PUSH1 0x0 DUP3 ADD CALLDATALOAD PUSH8 0xFFFFFFFFFFFFFFFF DUP2 GT ISZERO PUSH2 0x22CA JUMPI PUSH1 0x0 DUP1 REVERT JUMPDEST PUSH2 0x22D6 DUP5 DUP3 DUP6 ADD PUSH2 0x213D JUMP JUMPDEST SWAP2 POP POP SWAP3 SWAP2 POP POP JUMP JUMPDEST PUSH1 0x0 DUP1 PUSH1 0x40 DUP4 DUP6 SUB SLT ISZERO PUSH2 0x22F2 JUMPI PUSH1 0x0 DUP1 REVERT JUMPDEST PUSH1 0x0 DUP4 ADD CALLDATALOAD PUSH8 0xFFFFFFFFFFFFFFFF DUP2 GT ISZERO PUSH2 0x230C JUMPI PUSH1 0x0 DUP1 REVERT JUMPDEST PUSH2 0x2318 DUP6 DUP3 DUP7 ADD PUSH2 0x213D JUMP JUMPDEST SWAP3 POP POP PUSH1 0x20 PUSH2 0x2329 DUP6 DUP3 DUP7 ADD PUSH2 0x20E9 JUMP JUMPDEST SWAP2 POP POP SWAP3 POP SWAP3 SWAP1 POP JUMP JUMPDEST PUSH1 0x0 DUP1 PUSH1 0x0 PUSH1 0x60 DUP5 DUP7 SUB SLT ISZERO PUSH2 0x2348 JUMPI PUSH1 0x0 DUP1 REVERT JUMPDEST PUSH1 0x0 DUP5 ADD CALLDATALOAD PUSH8 0xFFFFFFFFFFFFFFFF DUP2 GT ISZERO PUSH2 0x2362 JUMPI PUSH1 0x0 DUP1 REVERT JUMPDEST PUSH2 0x236E DUP7 DUP3 DUP8 ADD PUSH2 0x213D JUMP JUMPDEST SWAP4 POP POP PUSH1 0x20 PUSH2 0x237F DUP7 DUP3 DUP8 ADD PUSH2 0x2167 JUMP JUMPDEST SWAP3 POP POP PUSH1 0x40 PUSH2 0x2390 DUP7 DUP3 DUP8 ADD PUSH2 0x20E9 JUMP JUMPDEST SWAP2 POP POP SWAP3 POP SWAP3 POP SWAP3 JUMP JUMPDEST PUSH2 0x23A3 DUP2 PUSH2 0x2B0E JUMP JUMPDEST DUP3 MSTORE POP POP JUMP JUMPDEST PUSH2 0x23B2 DUP2 PUSH2 0x2B0E JUMP JUMPDEST DUP3 MSTORE POP POP JUMP JUMPDEST PUSH2 0x23C1 DUP2 PUSH2 0x2B20 JUMP JUMPDEST DUP3 MSTORE POP POP JUMP JUMPDEST PUSH2 0x23D0 DUP2 PUSH2 0x2B2C JUMP JUMPDEST DUP3 MSTORE POP POP JUMP JUMPDEST PUSH2 0x23DF DUP2 PUSH2 0x2B99 JUMP JUMPDEST DUP3 MSTORE POP POP JUMP JUMPDEST PUSH2 0x23EE DUP2 PUSH2 0x2BBD JUMP JUMPDEST DUP3 MSTORE POP POP JUMP JUMPDEST PUSH2 0x23FD DUP2 PUSH2 0x2BBD JUMP JUMPDEST DUP3 MSTORE POP POP JUMP JUMPDEST PUSH1 0x0 PUSH2 0x240E DUP3 PUSH2 0x29F7 JUMP JUMPDEST PUSH2 0x2418 DUP2 DUP6 PUSH2 0x2A02 JUMP JUMPDEST SWAP4 POP PUSH2 0x2428 DUP2 DUP6 PUSH1 0x20 DUP7 ADD PUSH2 0x2BDE JUMP JUMPDEST PUSH2 0x2431 DUP2 PUSH2 0x2D77 JUMP JUMPDEST DUP5 ADD SWAP2 POP POP SWAP3 SWAP2 POP POP JUMP JUMPDEST PUSH1 0x0 PUSH2 0x2447 DUP3 PUSH2 0x29F7 JUMP JUMPDEST PUSH2 0x2451 DUP2 DUP6 PUSH2 0x2A13 JUMP JUMPDEST SWAP4 POP PUSH2 0x2461 DUP2 DUP6 PUSH1 0x20 DUP7 ADD PUSH2 0x2BDE JUMP JUMPDEST PUSH2 0x246A DUP2 PUSH2 0x2D77 JUMP JUMPDEST DUP5 ADD SWAP2 POP POP SWAP3 SWAP2 POP POP JUMP JUMPDEST PUSH1 0x0 PUSH2 0x2480 DUP3 PUSH2 0x29F7 JUMP JUMPDEST PUSH2 0x248A DUP2 DUP6 PUSH2 0x2A24 JUMP JUMPDEST SWAP4 POP PUSH2 0x249A DUP2 DUP6 PUSH1 0x20 DUP7 ADD PUSH2 0x2BDE JUMP JUMPDEST DUP1 DUP5 ADD SWAP2 POP POP SWAP3 SWAP2 POP POP JUMP JUMPDEST PUSH1 0x0 PUSH2 0x24B3 PUSH1 0x31 DUP4 PUSH2 0x2A13 JUMP JUMPDEST SWAP2 POP PUSH32 0x4E6F7420617574686F72697A65643A206D7573742062652063757272656E7420 PUSH1 0x0 DUP4 ADD MSTORE PUSH32 0x64656C6567617465206F72206F776E6572000000000000000000000000000000 PUSH1 0x20 DUP4 ADD MSTORE PUSH1 0x40 DUP3 ADD SWAP1 POP SWAP2 SWAP1 POP JUMP JUMPDEST PUSH1 0x0 PUSH2 0x2519 PUSH1 0x1C DUP4 PUSH2 0x2A13 JUMP JUMPDEST SWAP2 POP PUSH32 0x5472616E736665722065786365656473206772616E74206C696D697400000000 PUSH1 0x0 DUP4 ADD MSTORE PUSH1 0x20 DUP3 ADD SWAP1 POP SWAP2 SWAP1 POP JUMP JUMPDEST PUSH1 0x0 PUSH2 0x2559 PUSH1 0x1D DUP4 PUSH2 0x2A13 JUMP JUMPDEST SWAP2 POP PUSH32 0x4E6F7420617574686F72697A65643A206D757374206265206F776E6572000000 PUSH1 0x0 DUP4 ADD MSTORE PUSH1 0x20 DUP3 ADD SWAP1 POP SWAP2 SWAP1 POP JUMP JUMPDEST PUSH1 0x0 PUSH2 0x2599 PUSH1 0x1C DUP4 PUSH2 0x2A13 JUMP JUMPDEST SWAP2 POP PUSH32 0x4E65772064656C6567617465206973206E6F7420617070726F76656400000000 PUSH1 0x0 DUP4 ADD MSTORE PUSH1 0x20 DUP3 ADD SWAP1 POP SWAP2 SWAP1 POP JUMP JUMPDEST PUSH1 0x0 PUSH2 0x120 DUP4 ADD PUSH1 0x0 DUP4 ADD MLOAD PUSH2 0x25E5 PUSH1 0x0 DUP7 ADD DUP3 PUSH2 0x239A JUMP JUMPDEST POP PUSH1 0x20 DUP4 ADD MLOAD PUSH2 0x25F8 PUSH1 0x20 DUP7 ADD DUP3 PUSH2 0x239A JUMP JUMPDEST POP PUSH1 0x40 DUP4 ADD MLOAD PUSH2 0x260B PUSH1 0x40 DUP7 ADD DUP3 PUSH2 0x26BE JUMP JUMPDEST POP PUSH1 0x60 DUP4 ADD MLOAD PUSH2 0x261E PUSH1 0x60 DUP7 ADD DUP3 PUSH2 0x26BE JUMP JUMPDEST POP PUSH1 0x80 DUP4 ADD MLOAD PUSH2 0x2631 PUSH1 0x80 DUP7 ADD DUP3 PUSH2 0x26BE JUMP JUMPDEST POP PUSH1 0xA0 DUP4 ADD MLOAD PUSH2 0x2644 PUSH1 0xA0 DUP7 ADD DUP3 PUSH2 0x26BE JUMP JUMPDEST POP PUSH1 0xC0 DUP4 ADD MLOAD DUP5 DUP3 SUB PUSH1 0xC0 DUP7 ADD MSTORE PUSH2 0x265C DUP3 DUP3 PUSH2 0x2403 JUMP JUMPDEST SWAP2 POP POP PUSH1 0xE0 DUP4 ADD MLOAD PUSH2 0x2671 PUSH1 0xE0 DUP7 ADD DUP3 PUSH2 0x23E5 JUMP JUMPDEST POP PUSH2 0x100 DUP4 ADD MLOAD PUSH2 0x2686 PUSH2 0x100 DUP7 ADD DUP3 PUSH2 0x2691 JUMP JUMPDEST POP DUP1 SWAP2 POP POP SWAP3 SWAP2 POP POP JUMP JUMPDEST PUSH2 0x269A DUP2 PUSH2 0x2B49 JUMP JUMPDEST DUP3 MSTORE POP POP JUMP JUMPDEST PUSH2 0x26A9 DUP2 PUSH2 0x2B49 JUMP JUMPDEST DUP3 MSTORE POP POP JUMP JUMPDEST PUSH2 0x26B8 DUP2 PUSH2 0x2B77 JUMP JUMPDEST DUP3 MSTORE POP POP JUMP JUMPDEST PUSH2 0x26C7 DUP2 PUSH2 0x2B81 JUMP JUMPDEST DUP3 MSTORE POP POP JUMP JUMPDEST PUSH2 0x26D6 DUP2 PUSH2 0x2B81 JUMP JUMPDEST DUP3 MSTORE POP POP JUMP JUMPDEST PUSH1 0x0 PUSH2 0x26E8 DUP3 DUP5 PUSH2 0x2475 JUMP JUMPDEST SWAP2 POP DUP2 SWAP1 POP SWAP3 SWAP2 POP POP JUMP JUMPDEST PUSH1 0x0 PUSH1 0x20 DUP3 ADD SWAP1 POP PUSH2 0x2708 PUSH1 0x0 DUP4 ADD DUP5 PUSH2 0x23A9 JUMP JUMPDEST SWAP3 SWAP2 POP POP JUMP JUMPDEST PUSH1 0x0 PUSH1 0x60 DUP3 ADD SWAP1 POP PUSH2 0x2723 PUSH1 0x0 DUP4 ADD DUP7 PUSH2 0x23A9 JUMP JUMPDEST PUSH2 0x2730 PUSH1 0x20 DUP4 ADD DUP6 PUSH2 0x23A9 JUMP JUMPDEST PUSH2 0x273D PUSH1 0x40 DUP4 ADD DUP5 PUSH2 0x26AF JUMP JUMPDEST SWAP5 SWAP4 POP POP POP POP JUMP JUMPDEST PUSH1 0x0 PUSH2 0x120 DUP3 ADD SWAP1 POP PUSH2 0x275B PUSH1 0x0 DUP4 ADD DUP13 PUSH2 0x23A9 JUMP JUMPDEST PUSH2 0x2768 PUSH1 0x20 DUP4 ADD DUP12 PUSH2 0x23A9 JUMP JUMPDEST PUSH2 0x2775 PUSH1 0x40 DUP4 ADD DUP11 PUSH2 0x26CD JUMP JUMPDEST PUSH2 0x2782 PUSH1 0x60 DUP4 ADD DUP10 PUSH2 0x26CD JUMP JUMPDEST PUSH2 0x278F PUSH1 0x80 DUP4 ADD DUP9 PUSH2 0x26CD JUMP JUMPDEST PUSH2 0x279C PUSH1 0xA0 DUP4 ADD DUP8 PUSH2 0x26CD JUMP JUMPDEST DUP2 DUP2 SUB PUSH1 0xC0 DUP4 ADD MSTORE PUSH2 0x27AE DUP2 DUP7 PUSH2 0x243C JUMP JUMPDEST SWAP1 POP PUSH2 0x27BD PUSH1 0xE0 DUP4 ADD DUP6 PUSH2 0x23F4 JUMP JUMPDEST PUSH2 0x27CB PUSH2 0x100 DUP4 ADD DUP5 PUSH2 0x26A0 JUMP JUMPDEST SWAP11 SWAP10 POP POP POP POP POP POP POP POP POP POP JUMP JUMPDEST PUSH1 0x0 PUSH1 0x20 DUP3 ADD SWAP1 POP PUSH2 0x27EE PUSH1 0x0 DUP4 ADD DUP5 PUSH2 0x23B8 JUMP JUMPDEST SWAP3 SWAP2 POP POP JUMP JUMPDEST PUSH1 0x0 PUSH1 0x20 DUP3 ADD SWAP1 POP PUSH2 0x2809 PUSH1 0x0 DUP4 ADD DUP5 PUSH2 0x23C7 JUMP JUMPDEST SWAP3 SWAP2 POP POP JUMP JUMPDEST PUSH1 0x0 PUSH1 0x20 DUP3 ADD SWAP1 POP PUSH2 0x2824 PUSH1 0x0 DUP4 ADD DUP5 PUSH2 0x23D6 JUMP JUMPDEST SWAP3 SWAP2 POP POP JUMP JUMPDEST PUSH1 0x0 PUSH1 0x20 DUP3 ADD SWAP1 POP DUP2 DUP2 SUB PUSH1 0x0 DUP4 ADD MSTORE PUSH2 0x2844 DUP2 DUP5 PUSH2 0x243C JUMP JUMPDEST SWAP1 POP SWAP3 SWAP2 POP POP JUMP JUMPDEST PUSH1 0x0 PUSH1 0x80 DUP3 ADD SWAP1 POP DUP2 DUP2 SUB PUSH1 0x0 DUP4 ADD MSTORE PUSH2 0x2866 DUP2 DUP8 PUSH2 0x243C JUMP JUMPDEST SWAP1 POP PUSH2 0x2875 PUSH1 0x20 DUP4 ADD DUP7 PUSH2 0x23A9 JUMP JUMPDEST PUSH2 0x2882 PUSH1 0x40 DUP4 ADD DUP6 PUSH2 0x26CD JUMP JUMPDEST PUSH2 0x288F PUSH1 0x60 DUP4 ADD DUP5 PUSH2 0x26CD JUMP JUMPDEST SWAP6 SWAP5 POP POP POP POP POP JUMP JUMPDEST PUSH1 0x0 PUSH1 0x40 DUP3 ADD SWAP1 POP DUP2 DUP2 SUB PUSH1 0x0 DUP4 ADD MSTORE PUSH2 0x28B2 DUP2 DUP6 PUSH2 0x243C JUMP JUMPDEST SWAP1 POP PUSH2 0x28C1 PUSH1 0x20 DUP4 ADD DUP5 PUSH2 0x23F4 JUMP JUMPDEST SWAP4 SWAP3 POP POP POP JUMP JUMPDEST PUSH1 0x0 PUSH1 0x20 DUP3 ADD SWAP1 POP DUP2 DUP2 SUB PUSH1 0x0 DUP4 ADD MSTORE PUSH2 0x28E1 DUP2 PUSH2 0x24A6 JUMP JUMPDEST SWAP1 POP SWAP2 SWAP1 POP JUMP JUMPDEST PUSH1 0x0 PUSH1 0x20 DUP3 ADD SWAP1 POP DUP2 DUP2 SUB PUSH1 0x0 DUP4 ADD MSTORE PUSH2 0x2901 DUP2 PUSH2 0x250C JUMP JUMPDEST SWAP1 POP SWAP2 SWAP1 POP JUMP JUMPDEST PUSH1 0x0 PUSH1 0x20 DUP3 ADD SWAP1 POP DUP2 DUP2 SUB PUSH1 0x0 DUP4 ADD MSTORE PUSH2 0x2921 DUP2 PUSH2 0x254C JUMP JUMPDEST SWAP1 POP SWAP2 SWAP1 POP JUMP JUMPDEST PUSH1 0x0 PUSH1 0x20 DUP3 ADD SWAP1 POP DUP2 DUP2 SUB PUSH1 0x0 DUP4 ADD MSTORE PUSH2 0x2941 DUP2 PUSH2 0x258C JUMP JUMPDEST SWAP1 POP SWAP2 SWAP1 POP JUMP JUMPDEST PUSH1 0x0 PUSH1 0x20 DUP3 ADD SWAP1 POP DUP2 DUP2 SUB PUSH1 0x0 DUP4 ADD MSTORE PUSH2 0x2962 DUP2 DUP5 PUSH2 0x25CC JUMP JUMPDEST SWAP1 POP SWAP3 SWAP2 POP POP JUMP JUMPDEST PUSH1 0x0 PUSH1 0x40 MLOAD SWAP1 POP DUP2 DUP2 ADD DUP2 DUP2 LT PUSH8 0xFFFFFFFFFFFFFFFF DUP3 GT OR ISZERO PUSH2 0x2991 JUMPI PUSH2 0x2990 PUSH2 0x2D48 JUMP JUMPDEST JUMPDEST DUP1 PUSH1 0x40 MSTORE POP SWAP2 SWAP1 POP JUMP JUMPDEST PUSH1 0x0 PUSH8 0xFFFFFFFFFFFFFFFF DUP3 GT ISZERO PUSH2 0x29B6 JUMPI PUSH2 0x29B5 PUSH2 0x2D48 JUMP JUMPDEST JUMPDEST PUSH1 0x20 DUP3 MUL SWAP1 POP PUSH1 0x20 DUP2 ADD SWAP1 POP SWAP2 SWAP1 POP JUMP JUMPDEST PUSH1 0x0 PUSH8 0xFFFFFFFFFFFFFFFF DUP3 GT ISZERO PUSH2 0x29E2 JUMPI PUSH2 0x29E1 PUSH2 0x2D48 JUMP JUMPDEST JUMPDEST PUSH1 0x1F NOT PUSH1 0x1F DUP4 ADD AND SWAP1 POP PUSH1 0x20 DUP2 ADD SWAP1 POP SWAP2 SWAP1 POP JUMP JUMPDEST PUSH1 0x0 DUP2 MLOAD SWAP1 POP SWAP2 SWAP1 POP JUMP JUMPDEST PUSH1 0x0 DUP3 DUP3 MSTORE PUSH1 0x20 DUP3 ADD SWAP1 POP SWAP3 SWAP2 POP POP JUMP JUMPDEST PUSH1 0x0 DUP3 DUP3 MSTORE PUSH1 0x20 DUP3 ADD SWAP1 POP SWAP3 SWAP2 POP POP JUMP JUMPDEST PUSH1 0x0 DUP2 SWAP1 POP SWAP3 SWAP2 POP POP JUMP JUMPDEST PUSH1 0x0 PUSH2 0x2A3A DUP3 PUSH2 0x2B49 JUMP JUMPDEST SWAP2 POP PUSH2 0x2A45 DUP4 PUSH2 0x2B49 JUMP JUMPDEST SWAP3 POP DUP3 PUSH2 0xFFFF SUB DUP3 GT ISZERO PUSH2 0x2A5C JUMPI PUSH2 0x2A5B PUSH2 0x2C8C JUMP JUMPDEST JUMPDEST DUP3 DUP3 ADD SWAP1 POP SWAP3 SWAP2 POP POP JUMP JUMPDEST PUSH1 0x0 PUSH2 0x2A72 DUP3 PUSH2 0x2B81 JUMP JUMPDEST SWAP2 POP PUSH2 0x2A7D DUP4 PUSH2 0x2B81 JUMP JUMPDEST SWAP3 POP DUP3 PUSH12 0xFFFFFFFFFFFFFFFFFFFFFFFF SUB DUP3 GT ISZERO PUSH2 0x2A9E JUMPI PUSH2 0x2A9D PUSH2 0x2C8C JUMP JUMPDEST JUMPDEST DUP3 DUP3 ADD SWAP1 POP SWAP3 SWAP2 POP POP JUMP JUMPDEST PUSH1 0x0 PUSH2 0x2AB4 DUP3 PUSH2 0x2B81 JUMP JUMPDEST SWAP2 POP PUSH2 0x2ABF DUP4 PUSH2 0x2B81 JUMP JUMPDEST SWAP3 POP DUP3 PUSH2 0x2ACF JUMPI PUSH2 0x2ACE PUSH2 0x2CBB JUMP JUMPDEST JUMPDEST DUP3 DUP3 DIV SWAP1 POP SWAP3 SWAP2 POP POP JUMP JUMPDEST PUSH1 0x0 PUSH2 0x2AE5 DUP3 PUSH2 0x2B49 JUMP JUMPDEST SWAP2 POP PUSH2 0x2AF0 DUP4 PUSH2 0x2B49 JUMP JUMPDEST SWAP3 POP DUP3 DUP3 LT ISZERO PUSH2 0x2B03 JUMPI PUSH2 0x2B02 PUSH2 0x2C8C JUMP JUMPDEST JUMPDEST DUP3 DUP3 SUB SWAP1 POP SWAP3 SWAP2 POP POP JUMP JUMPDEST PUSH1 0x0 PUSH2 0x2B19 DUP3 PUSH2 0x2B57 JUMP JUMPDEST SWAP1 POP SWAP2 SWAP1 POP JUMP JUMPDEST PUSH1 0x0 DUP2 ISZERO ISZERO SWAP1 POP SWAP2 SWAP1 POP JUMP JUMPDEST PUSH1 0x0 DUP2 SWAP1 POP SWAP2 SWAP1 POP JUMP JUMPDEST PUSH1 0x0 DUP2 SWAP1 POP PUSH2 0x2B44 DUP3 PUSH2 0x2D88 JUMP JUMPDEST SWAP2 SWAP1 POP JUMP JUMPDEST PUSH1 0x0 PUSH2 0xFFFF DUP3 AND SWAP1 POP SWAP2 SWAP1 POP JUMP JUMPDEST PUSH1 0x0 PUSH20 0xFFFFFFFFFFFFFFFFFFFFFFFFFFFFFFFFFFFFFFFF DUP3 AND SWAP1 POP SWAP2 SWAP1 POP JUMP JUMPDEST PUSH1 0x0 DUP2 SWAP1 POP SWAP2 SWAP1 POP JUMP JUMPDEST PUSH1 0x0 PUSH12 0xFFFFFFFFFFFFFFFFFFFFFFFF DUP3 AND SWAP1 POP SWAP2 SWAP1 POP JUMP JUMPDEST PUSH1 0x0 PUSH2 0x2BA4 DUP3 PUSH2 0x2BAB JUMP JUMPDEST SWAP1 POP SWAP2 SWAP1 POP JUMP JUMPDEST PUSH1 0x0 PUSH2 0x2BB6 DUP3 PUSH2 0x2B57 JUMP JUMPDEST SWAP1 POP SWAP2 SWAP1 POP JUMP JUMPDEST PUSH1 0x0 PUSH2 0x2BC8 DUP3 PUSH2 0x2B36 JUMP JUMPDEST SWAP1 POP SWAP2 SWAP1 POP JUMP JUMPDEST DUP3 DUP2 DUP4 CALLDATACOPY PUSH1 0x0 DUP4 DUP4 ADD MSTORE POP POP POP JUMP JUMPDEST PUSH1 0x0 JUMPDEST DUP4 DUP2 LT ISZERO PUSH2 0x2BFC JUMPI DUP1 DUP3 ADD MLOAD DUP2 DUP5 ADD MSTORE PUSH1 0x20 DUP2 ADD SWAP1 POP PUSH2 0x2BE1 JUMP JUMPDEST DUP4 DUP2 GT ISZERO PUSH2 0x2C0B JUMPI PUSH1 0x0 DUP5 DUP5 ADD MSTORE JUMPDEST POP POP POP POP JUMP JUMPDEST PUSH1 0x0 PUSH1 0x2 DUP3 DIV SWAP1 POP PUSH1 0x1 DUP3 AND DUP1 PUSH2 0x2C29 JUMPI PUSH1 0x7F DUP3 AND SWAP2 POP JUMPDEST PUSH1 0x20 DUP3 LT DUP2 EQ ISZERO PUSH2 0x2C3D JUMPI PUSH2 0x2C3C PUSH2 0x2D19 JUMP JUMPDEST JUMPDEST POP SWAP2 SWAP1 POP JUMP JUMPDEST PUSH1 0x0 PUSH2 0x2C4E DUP3 PUSH2 0x2B77 JUMP JUMPDEST SWAP2 POP PUSH32 0xFFFFFFFFFFFFFFFFFFFFFFFFFFFFFFFFFFFFFFFFFFFFFFFFFFFFFFFFFFFFFFFF DUP3 EQ ISZERO PUSH2 0x2C81 JUMPI PUSH2 0x2C80 PUSH2 0x2C8C JUMP JUMPDEST JUMPDEST PUSH1 0x1 DUP3 ADD SWAP1 POP SWAP2 SWAP1 POP JUMP JUMPDEST PUSH32 0x4E487B7100000000000000000000000000000000000000000000000000000000 PUSH1 0x0 MSTORE PUSH1 0x11 PUSH1 0x4 MSTORE PUSH1 0x24 PUSH1 0x0 REVERT JUMPDEST PUSH32 0x4E487B7100000000000000000000000000000000000000000000000000000000 PUSH1 0x0 MSTORE PUSH1 0x12 PUSH1 0x4 MSTORE PUSH1 0x24 PUSH1 0x0 REVERT JUMPDEST PUSH32 0x4E487B7100000000000000000000000000000000000000000000000000000000 PUSH1 0x0 MSTORE PUSH1 0x21 PUSH1 0x4 MSTORE PUSH1 0x24 PUSH1 0x0 REVERT JUMPDEST PUSH32 0x4E487B7100000000000000000000000000000000000000000000000000000000 PUSH1 0x0 MSTORE PUSH1 0x22 PUSH1 0x4 MSTORE PUSH1 0x24 PUSH1 0x0 REVERT JUMPDEST PUSH32 0x4E487B7100000000000000000000000000000000000000000000000000000000 PUSH1 0x0 MSTORE PUSH1 0x41 PUSH1 0x4 MSTORE PUSH1 0x24 PUSH1 0x0 REVERT JUMPDEST PUSH1 0x0 PUSH1 0x1F NOT PUSH1 0x1F DUP4 ADD AND SWAP1 POP SWAP2 SWAP1 POP JUMP JUMPDEST PUSH1 0x4 DUP2 LT PUSH2 0x2D99 JUMPI PUSH2 0x2D98 PUSH2 0x2CEA JUMP JUMPDEST JUMPDEST POP JUMP JUMPDEST PUSH2 0x2DA5 DUP2 PUSH2 0x2B0E JUMP JUMPDEST DUP2 EQ PUSH2 0x2DB0 JUMPI PUSH1 0x0 DUP1 REVERT JUMPDEST POP JUMP JUMPDEST PUSH2 0x2DBC DUP2 PUSH2 0x2B20 JUMP JUMPDEST DUP2 EQ PUSH2 0x2DC7 JUMPI PUSH1 0x0 DUP1 REVERT JUMPDEST POP JUMP JUMPDEST PUSH2 0x2DD3 DUP2 PUSH2 0x2B81 JUMP JUMPDEST DUP2 EQ PUSH2 0x2DDE JUMPI PUSH1 0x0 DUP1 REVERT JUMPDEST POP JUMP INVALID LOG2 PUSH5 0x6970667358 0x22 SLT KECCAK256 0x2E 0xD9 0x4E 0x49 SHL 0xC DUP10 POP DUP6 0x23 SELFDESTRUCT JUMPI 0xC2 XOR POP TIMESTAMP RETURNDATACOPY COINBASE 0xD7 EXTCODECOPY 0x2A SWAP4 0x22 0x22 EXTCODECOPY 0x27 0xC1 DUP13 0xBB 0xB1 DUP7 PUSH18 0x64736F6C6343000800003300000000000000 "},"gasEstimates":{"creation":{"codeDepositCost":"2359800","executionCost":"infinite","totalCost":"infinite"},"external":{"DOMAIN_SEPARATOR_TYPEHASH()":"375","GRANT_TRANSFER_TYPEHASH()":"351","NAME()":"infinite","VERSION()":"infinite","addDelegates(address[])":"infinite","approvedDelegates(address)":"1590","cancelGrant(string)":"infinite","getGrant(string)":"infinite","grants(string)":"infinite","owner()":"1237","setGrant(address,address,uint96,uint96,string)":"infinite","token()":"1320","updateGrant(string,uint96,address)":"infinite","updateGrantDelegate(string,address)":"infinite"},"internal":{"executeGrantTransfer(string memory)":"infinite"}},"methodIdentifiers":{"DOMAIN_SEPARATOR_TYPEHASH()":"1db61b54","GRANT_TRANSFER_TYPEHASH()":"e1ad0377","NAME()":"a3f4df7e","VERSION()":"ffa1ad74","addDelegates(address[])":"eb700373","approvedDelegates(address)":"46015978","cancelGrant(string)":"6c2b6ef9","getGrant(string)":"4b531c05","grants(string)":"33aec12a","owner()":"8da5cb5b","setGrant(address,address,uint96,uint96,string)":"90e1ebda","token()":"fc0c546a","updateGrant(string,uint96,address)":"0c1f5972","updateGrantDelegate(string,address)":"1f62bd01"}},"storageLayout":{"storage":[{"astId":97,"contract":"contracts/GrantPayment.sol:GrantPayment","label":"token","offset":0,"slot":"0","type":"t_contract(IERC20)77"},{"astId":115,"contract":"contracts/GrantPayment.sol:GrantPayment","label":"owner","offset":0,"slot":"1","type":"t_address"},{"astId":117,"contract":"contracts/GrantPayment.sol:GrantPayment","label":"tokenAddress","offset":0,"slot":"2","type":"t_address"},{"astId":122,"contract":"contracts/GrantPayment.sol:GrantPayment","label":"grants","offset":0,"slot":"3","type":"t_mapping(t_string_memory_ptr,t_struct(Grant)146_storage)"},{"astId":126,"contract":"contracts/GrantPayment.sol:GrantPayment","label":"approvedDelegates","offset":0,"slot":"4","type":"t_mapping(t_address,t_bool)"}],"types":{"t_address":{"encoding":"inplace","label":"address","numberOfBytes":"20"},"t_bool":{"encoding":"inplace","label":"bool","numberOfBytes":"1"},"t_contract(IERC20)77":{"encoding":"inplace","label":"contract IERC20","numberOfBytes":"20"},"t_enum(GrantStatus)88":{"encoding":"inplace","label":"enum Enum.GrantStatus","numberOfBytes":"1"},"t_mapping(t_address,t_bool)":{"encoding":"mapping","key":"t_address","label":"mapping(address => bool)","numberOfBytes":"32","value":"t_bool"},"t_mapping(t_string_memory_ptr,t_struct(Grant)146_storage)":{"encoding":"mapping","key":"t_string_memory_ptr","label":"mapping(string => struct GrantPayment.Grant)","numberOfBytes":"32","value":"t_struct(Grant)146_storage"},"t_string_memory_ptr":{"encoding":"bytes","label":"string","numberOfBytes":"32"},"t_string_storage":{"encoding":"bytes","label":"string","numberOfBytes":"32"},"t_struct(Grant)146_storage":{"encoding":"inplace","label":"struct GrantPayment.Grant","members":[{"astId":128,"contract":"contracts/GrantPayment.sol:GrantPayment","label":"delegate","offset":0,"slot":"0","type":"t_address"},{"astId":130,"contract":"contracts/GrantPayment.sol:GrantPayment","label":"grantee","offset":0,"slot":"1","type":"t_address"},{"astId":132,"contract":"contracts/GrantPayment.sol:GrantPayment","label":"amount","offset":20,"slot":"1","type":"t_uint96"},{"astId":134,"contract":"contracts/GrantPayment.sol:GrantPayment","label":"distributedAmount","offset":0,"slot":"2","type":"t_uint96"},{"astId":136,"contract":"contracts/GrantPayment.sol:GrantPayment","label":"milestoneAmount","offset":12,"slot":"2","type":"t_uint96"},{"astId":138,"contract":"contracts/GrantPayment.sol:GrantPayment","label":"reachedMilestoneAmount","offset":0,"slot":"3","type":"t_uint96"},{"astId":140,"contract":"contracts/GrantPayment.sol:GrantPayment","label":"grantRefID","offset":0,"slot":"4","type":"t_string_storage"},{"astId":143,"contract":"contracts/GrantPayment.sol:GrantPayment","label":"status","offset":0,"slot":"5","type":"t_enum(GrantStatus)88"},{"astId":145,"contract":"contracts/GrantPayment.sol:GrantPayment","label":"nonce","offset":1,"slot":"5","type":"t_uint16"}],"numberOfBytes":"192"},"t_uint16":{"encoding":"inplace","label":"uint16","numberOfBytes":"2"},"t_uint96":{"encoding":"inplace","label":"uint96","numberOfBytes":"12"}}},"userdoc":{"kind":"user","methods":{},"version":1}}}}